# 2012-12-21
#
# The author disclaims copyright to this source code.  In place of
# a legal notice, here is a blessing:
#
#    May you do good and not evil.
#    May you find forgiveness for yourself and forgive others.
#    May you share freely, never taking more than you give.
#
#***********************************************************************
#
# Test cases for corrupt database files.

if {![info exists testdir]} {
  set testdir [file join [file dirname [info script]] .. .. test]
} 
source $testdir/tester.tcl

ifcapable !deserialize||!rtree {
  finish_test
  return
}
database_may_be_corrupt

do_test rtreefuzz001-100 {
  sqlite3 db {}
  db deserialize [decode_hexdb {
| size 24576 pagesize 4096 filename c1b.db
| page 1 offset 0
|      0: 53 51 4c 69 74 65 20 66 6f 72 6d 61 74 20 33 00   SQLite format 3.
|     16: 10 00 01 01 00 40 20 20 00 00 00 03 00 00 00 06   .....@  ........
|     32: 00 00 00 00 00 00 00 00 00 00 00 03 00 00 00 04   ................
|     48: 00 00 00 00 00 00 00 00 00 00 00 01 00 00 00 00   ................
|     80: 00 00 00 00 00 00 00 00 00 00 00 00 00 00 00 03   ................
|     96: 00 2e 30 38 0d 00 00 00 04 0e 9c 00 0f ad 0f 4f   ..08...........O
|    112: 0e fc 0e 9c 00 00 00 00 00 00 00 00 00 00 00 00   ................
|   3728: 00 00 00 00 00 00 00 00 00 00 00 00 5e 04 07 17   ............^...
|   3744: 1f 1f 01 81 0b 74 61 62 6c 65 74 31 5f 70 61 72   .....tablet1_par
|   3760: 65 6e 74 74 31 5f 70 61 72 65 6e 74 04 43 52 45   entt1_parent.CRE
|   3776: 41 54 45 20 54 41 42 4c 45 20 22 74 31 5f 70 61   ATE TABLE .t1_pa
|   3792: 72 66 6e 74 22 28 6e 6f 64 65 6e 6f 20 49 4e 54   rfnt.(nodeno INT
|   3808: 45 47 45 52 20 50 52 49 4d 41 52 59 20 4b 45 59   EGER PRIMARY KEY
|   3824: 2c 70 61 72 65 6e 74 6e 6f 64 65 29 51 03 06 17   ,parentnode)Q...
|   3840: 1b 1b 01 7b 74 61 62 6c 65 74 31 5f 6e 6f 64 65   ....tablet1_node
|   3856: 74 31 5f 6e 6f 64 65 03 43 52 45 41 54 45 20 54   t1_node.CREATE T
|   3872: 41 42 4c 45 20 22 74 31 5f 6e 6f 64 65 22 28 6e   ABLE .t1_node.(n
|   3888: 6f 64 65 6e 6f 20 49 4e 54 45 47 45 52 20 50 52   odeno INTEGER PR
|   3904: 49 4d 41 52 59 20 4b 45 59 2c 64 61 74 61 29 5c   IMARY KEY,data).
|   3920: 02 07 17 1d 1d 01 81 0b 74 61 62 6c 65 74 31 5f   ........tablet1_
|   3936: 72 6f 77 69 64 74 31 5f 72 6f 77 69 64 02 43 52   rowidt1_rowid.CR
|   3952: 45 41 54 45 20 54 41 42 4c 45 20 22 74 31 5f 72   EATE TABLE .t1_r
|   3968: 6f 77 69 64 22 28 72 6f 77 69 64 20 49 4e 54 45   owid.(rowid INTE
|   3984: 47 45 52 20 50 52 49 4d 41 52 59 20 4b 45 59 2c   GER PRIMARY KEY,
|   4000: 6e 6f 64 65 6e 6f 2c 61 30 2c 61 31 29 51 01 07   nodeno,a0,a1)Q..
|   4016: 17 11 11 08 81 0f 74 61 62 6c 65 74 31 74 31 43   ......tablet1t1C
|   4032: 52 45 41 54 45 20 56 49 52 54 55 41 4c 20 54 41   REATE VIRTUAL TA
|   4048: 42 4c 45 20 74 31 20 55 53 49 4e 47 20 72 74 72   BLE t1 USING rtr
|   4064: 65 65 28 69 64 2c 78 30 2c 78 31 2c 79 30 2c 79   ee(id,x0,x1,y0,y
|   4080: 31 2c 2b 6c 61 62 65 6c 2c 2b 6f 74 68 65 72 29   1,+label,+other)
| page 2 offset 4096
|      0: 0d 0c cd 00 74 08 75 01 0f e8 0c b3 0f d0 0f b7   ....t.u.........
|     16: 0f 9e 0f 91 0f 81 0f 70 0f 5e 0f 4f 0f 39 0f 29   .......p.^.O.9.)
|     32: 0f 18 0f 06 0e f7 0c 65 0e 58 0d c2 0d 2c 0c 25   .......e.X...,.%
|     48: 0b 85 0a e5 0a 45 09 a5 09 05 0c 83 0c 93 0c a3   .....E..........
|     64: 0f f0 0c 15 0b 75 0a d5 0a 35 09 95 08 f5 0e d8   .....u...5......
|     80: 0e 42 0d ac 0d 16 0c 05 0b 65 0a c5 0a 25 09 85   .B.......e...%..
|     96: 08 e5 0e c8 0e 32 0d 9c 0d 06 0b f5 0b 55 0a b5   .....2.......U..
|    112: 0a 15 09 75 08 d5 0e b8 0e 22 0d 8c 0c f6 0b e5   ...u............
|    128: 0b 45 0a a5 0a 05 09 65 08 c5 0e a8 0e 12 0d 7c   .E.....e.......|
|    144: 0c e6 0b d5 0b 35 0a 95 09 f5 09 55 08 b5 0e 98   .....5.....U....
|    160: 0e 02 0d 6c 0c d6 0b c5 0b 25 0a 85 09 e5 09 45   ...l.....%.....E
|    176: 08 a5 0e 88 0d f2 0d 5c 0c 55 0b b5 0b 15 0a 75   .........U.....u
|    192: 09 d5 09 35 08 95 0e 78 0d e2 0d 4c 0c 45 0b a5   ...5...x...L.E..
|    208: 0b 05 0a 65 09 c5 09 25 08 85 0e 68 0d d2 0d 3c   ...e...%...h...<
|    224: 0c 35 0b 95 0a f5 0a 55 09 b5 09 15 08 75 0c 75   .5.....U.....u.u
|   2160: 00 00 00 00 00 0d 8e 75 05 00 01 1b 00 04 62 6f   .......u......bo
|   2176: 78 2d 39 2c 39 0d 8e 11 05 00 01 1b 00 02 62 6f   x-9,9.........bo
|   2192: 78 2d 39 2c 38 0d 8d 2d 05 00 01 1b 00 02 62 6f   x-9,8..-......bo
|   2208: 78 2d 39 2c 37 0d 8c 49 05 00 01 1b 00 02 62 6f   x-9,7..I......bo
|   2224: 78 2d 39 2c 36 0d 8b 65 05 00 01 1b 00 02 62 6f   x-9,6..e......bo
|   2240: 78 2d 39 2c 35 0d 8b 01 05 00 01 1b 00 02 62 6f   x-9,5.........bo
|   2256: 78 2d 39 2c 34 0d 8a 1d 05 00 01 1b 00 02 62 6f   x-9,4.........bo
|   2272: 78 2d 39 2c 33 0d 89 39 05 00 01 1b 00 02 62 6f   x-9,3..9......bo
|   2288: 78 2d 39 2c 32 0d 88 55 05 00 01 1b 00 02 62 6f   x-9,2..U......bo
|   2304: 78 2d 39 2c 31 0d 87 71 05 00 01 1b 00 02 62 6f   x-9,1..q......bo
|   2320: 78 2d 39 2c 30 0d 8e 74 05 00 01 1b 00 04 62 6f   x-9,0..t......bo
|   2336: 78 2d 38 2c 39 0d 8e 10 05 00 01 1b 00 02 62 6f   x-8,9.........bo
|   2352: 78 2d 38 2c 38 0d 8d 2c 05 00 01 1b 00 02 62 6f   x-8,8..,......bo
|   2368: 78 2d 38 2c 37 0d 8c 48 05 00 01 1b 00 02 62 6f   x-8,7..H......bo
|   2384: 78 2d 38 2c 36 0d 8b 64 05 00 01 1b 00 02 62 6f   x-8,6..d......bo
|   2400: 78 2d 38 2c 35 0d 8b 00 05 00 01 1b 00 02 62 6f   x-8,5.........bo
|   2416: 78 2d 38 2c 34 0d 8a 1c 05 00 01 1b 00 02 62 6f   x-8,4.........bo
|   2432: 78 2d 38 2c 33 0d 89 38 05 00 01 1b 00 02 62 6f   x-8,3..8......bo
|   2448: 78 2d 38 2c 32 0d 88 54 05 00 01 1b 00 02 62 6f   x-8,2..T......bo
|   2464: 78 2d 38 2c 31 0d 87 70 05 00 01 1b 00 02 62 6f   x-8,1..p......bo
|   2480: 78 2d 38 2c 30 0d 8e 73 05 00 01 1b 00 05 62 6f   x-8,0..s......bo
|   2496: 78 2d 37 2c 39 0d 8e 0f 05 00 01 1b 00 05 62 6f   x-7,9.........bo
|   2512: 78 2d 37 2c 38 0d 8d 2b 05 00 01 1b 00 05 62 6f   x-7,8..+......bo
|   2528: 78 2d 37 2c 37 0d 8c 47 05 00 01 1b 00 05 62 6f   x-7,7..G......bo
|   2544: 78 2d 37 2c 36 0d 8b 63 05 00 01 1b 00 05 62 6f   x-7,6..c......bo
|   2560: 78 2d 37 2c 35 0d 8a 7f 05 00 01 1b 00 05 62 6f   x-7,5.........bo
|   2576: 78 2d 37 2c 34 0d 8a 1b 05 00 01 1b 00 05 62 6f   x-7,4.........bo
|   2592: 78 2d 37 2c 33 0d 89 37 05 00 01 1b 00 05 62 6f   x-7,3..7......bo
|   2608: 78 2d 37 2c 32 0d 88 53 05 00 01 1b 00 05 62 6f   x-7,2..S......bo
|   2624: 78 2d 37 2c 31 0d 87 6f 05 00 01 1b 00 05 62 6f   x-7,1..o......bo
|   2640: 78 2d 37 2c 30 0d 8e 72 05 00 01 1b 00 04 62 6f   x-7,0..r......bo
|   2656: 78 2d 36 2c 39 0d 8e 0e 05 00 01 1b 00 05 62 6f   x-6,9.........bo
|   2672: 78 2d 36 2c 38 0d 8d 2a 05 00 01 1b 00 05 62 6f   x-6,8..*......bo
|   2688: 78 2d 36 2c 37 0d 8c 46 05 00 01 1b 00 05 62 6f   x-6,7..F......bo
|   2704: 78 2d 36 2c 36 0d 8b 62 05 00 01 1b 00 05 62 6f   x-6,6..b......bo
|   2720: 78 2d 36 2c 35 0d 8a 7e 05 00 01 1b 00 05 62 6f   x-6,5..~......bo
|   2736: 78 2d 36 2c 34 0d 8a 1a 05 00 01 1b 00 05 62 6f   x-6,4.........bo
|   2752: 78 2d 36 2c 33 0d 89 36 05 00 01 1b 00 05 62 6f   x-6,3..6......bo
|   2768: 78 2d 36 2c 32 0d 88 52 05 00 01 1b 00 05 62 6f   x-6,2..R......bo
|   2784: 78 2d 36 2c 31 0d 87 6e 05 00 01 1b 00 05 62 6f   x-6,1..n......bo
|   2800: 78 2d 36 2c 30 0d 8e 71 05 00 01 1b 00 04 62 6f   x-6,0..q......bo
|   2816: 78 2d 35 2c 39 0d 8e 0d 05 00 01 1b 00 05 62 6f   x-5,9.........bo
|   2832: 78 2d 35 2c 38 0d 8d 29 05 00 01 1b 00 05 62 6f   x-5,8..)......bo
|   2848: 78 2d 35 2c 37 0d 8c 45 05 00 01 1b 00 05 62 6f   x-5,7..E......bo
|   2864: 78 2d 35 2c 36 0d 8b 61 05 00 01 1b 00 05 62 6f   x-5,6..a......bo
|   2880: 78 2d 35 2c 35 0d 8a 7d 05 00 01 1b 00 05 62 6f   x-5,5.........bo
|   2896: 78 2d 35 2c 34 0d 8a 19 05 00 01 1b 00 05 62 6f   x-5,4.........bo
|   2912: 78 2d 35 2c 33 0d 89 35 05 00 01 1b 00 05 62 6f   x-5,3..5......bo
|   2928: 78 2d 35 2c 32 0d 88 51 05 00 01 1b 00 05 62 6f   x-5,2..Q......bo
|   2944: 78 2d 35 2c 31 0d 87 6d 05 00 01 1b 00 05 62 6f   x-5,1..m......bo
|   2960: 78 2d 35 2c 30 0d 8e 70 05 00 01 1b 00 04 62 6f   x-5,0..p......bo
|   2976: 78 2d 34 2c 39 0d 8e 0c 05 00 01 1b 00 04 62 6f   x-4,9.........bo
|   2992: 78 2d 34 2c 38 0d 8d 28 05 00 01 1b 00 04 62 6f   x-4,8..(......bo
|   3008: 78 2d 34 2c 37 0d 8c 44 05 00 01 1b 00 04 62 6f   x-4,7..D......bo
|   3024: 78 2d 34 2c 36 0d 8b 60 05 00 01 1b 00 02 62 6f   x-4,6..`......bo
|   3040: 78 2d 34 2c 35 0d 8a 7c 05 00 01 1b 00 02 62 6f   x-4,5..|......bo
|   3056: 78 2d 34 2c 34 0d 8a 18 05 00 01 1b 00 02 62 6f   x-4,4.........bo
|   3072: 78 2d 34 2c 33 0d 89 34 05 00 01 1b 00 02 62 6f   x-4,3..4......bo
|   3088: 78 2d 34 2c 32 0d 88 50 05 00 01 1b 00 02 62 6f   x-4,2..P......bo
|   3104: 78 2d 34 2c 31 0d 87 6c 05 00 01 1b 00 02 62 6f   x-4,1..l......bo
|   3120: 78 2d 34 2c 30 0d 8e 6f 05 00 01 1b 00 04 62 6f   x-4,0..o......bo
|   3136: 78 2d 33 2c 39 0d 8e 0b 05 00 01 1b 00 04 62 6f   x-3,9.........bo
|   3152: 78 2d 33 2c 38 0d 8d 27 05 00 01 1b 00 04 62 6f   x-3,8..'......bo
|   3168: 78 2d 33 2c 37 0d 87 68 05 00 01 1b 00 03 62 6f   x-3,7..h......bo
|   3184: 78 2d 30 2c 30 06 90 d9 80 80 81 84 4c 05 00 01   x-0,0.......L...
|   3200: 00 00 03 0d 88 4c 05 00 01 1b 00 02 62 6f 78 2d   .....L......box-
|   3216: 30 2c 31 0d 88 4d 05 00 01 1b 00 02 62 6f 78 2d   0,1..M......box-
|   3232: 31 2c 31 0d 88 4e 05 00 01 1b 00 02 62 6f 78 2d   1,1..N......box-
|   3248: 32 2c 31 17 01 05 00 01 2f 00 02 6c 6f 77 65 72   2,1...../..lower
|   3264: 2d 6c 65 66 74 20 63 6f 72 6e 65 72 0d 0d 26 00   -left corner..&.
|   3280: 09 00 01 00 00 04 0d 8c 43 05 00 01 1b 00 04 62   ........C......b
|   3296: 6f 78 2d 33 2c 36 0d 8b 5f 05 00 01 1b 00 02 62   ox-3,6.._......b
|   3312: 6f 78 2d 33 2c 35 0d 8a 7b 05 00 01 1b 00 02 62   ox-3,5.........b
|   3328: 6f 78 2d 33 2c 34 0d 8a 17 05 00 01 1b 00 02 62   ox-3,4.........b
|   3344: 6f 78 2d 33 2c 33 0d 89 33 05 00 01 1b 00 02 62   ox-3,3..3......b
|   3360: 6f 78 2d 33 2c 32 0d bc 00 06 00 09 0d 87 6b 05   ox-3,2........k.
|   3376: 00 01 1b 00 03 62 6f 78 2d 33 2c 30 0d 8e 6e 05   .....box-3,0..n.
|   3392: 00 01 1b 00 04 62 6f 78 2d 32 2c 39 0d 8e 0a 05   .....box-2,9....
|   3408: 00 01 1b 00 04 62 6f 78 2d 32 2c 38 0d 8d 26 05   .....box-2,8..&.
|   3424: 00 01 1b 00 04 62 6f 78 2d 32 2c 37 0d 8c 42 05   .....box-2,7..B.
|   3440: 00 01 1b 00 04 62 6f 78 2d 32 2c 36 0d 8b 5e 05   .....box-2,6..^.
|   3456: 00 01 1b 00 02 62 6f 78 2d 32 2c 35 0d 8a 7a 05   .....box-2,5..z.
|   3472: 00 01 1b 00 02 62 6f 78 2d 32 2c 34 0d 8a 16 05   .....box-2,4....
|   3488: 00 01 1b 00 02 62 6f 78 2d 32 2c 33 0d 89 32 05   .....box-2,3..2.
|   3504: 00 01 1b 00 02 62 6f 78 2d 32 2c 32 0e 52 00 06   .....box-2,2.R..
|   3520: 00 09 0d 87 6a 05 00 01 1b 00 03 62 6f 78 2d 32   ....j......box-2
|   3536: 2c 30 0d 8e 6d 05 00 01 1b 00 04 62 6f 78 2d 31   ,0..m......box-1
|   3552: 2c 39 0d 8e 09 05 00 01 1b 00 04 62 6f 78 2d 31   ,9.........box-1
|   3568: 2c 38 0d 8d 25 05 00 01 1b 00 04 62 6f 78 2d 31   ,8..%......box-1
|   3584: 2c 37 0d 8c 41 05 00 01 1b 00 04 62 6f 78 2d 31   ,7..A......box-1
|   3600: 2c 36 0d 8b 5d 05 00 01 1b 00 02 62 6f 78 2d 31   ,6..]......box-1
|   3616: 2c 35 0d 8a 79 05 00 01 1b 00 02 62 6f 78 2d 31   ,5..y......box-1
|   3632: 2c 34 0d 8a 15 05 00 01 1b 00 02 62 6f 78 2d 31   ,4.........box-1
|   3648: 2c 33 0d 89 31 05 00 01 1b 00 02 62 6f 78 2d 31   ,3..1......box-1
|   3664: 2c 32 0e e8 00 06 00 09 0d 87 69 05 00 01 1b 00   ,2........i.....
|   3680: 03 62 6f 78 2d 31 2c 30 0d 8e 6c 05 00 01 1b 00   .box-1,0..l.....
|   3696: 04 62 6f 78 2d 30 2c 39 0d 8e 08 05 00 01 1b 00   .box-0,9........
|   3712: 04 62 6f 78 2d 30 2c 38 0d 8d 24 05 00 01 1b 00   .box-0,8..$.....
|   3728: 04 62 6f 78 2d 30 2c 37 0d 8c 40 05 00 01 1b 00   .box-0,7..@.....
|   3744: 04 62 6f 78 2d 30 2c 36 0d 8b 5c 05 00 01 1b 00   .box-0,6........
|   3760: 02 62 6f 78 2d 30 2c 35 0d 8a 78 05 00 01 1b 00   .box-0,5..x.....
|   3776: 02 62 6f 78 2d 30 2c 34 0d 8a 14 05 00 01 1b 00   .box-0,4........
|   3792: 02 62 6f 78 2d 30 2c 33 0d 89 30 05 00 01 1b 00   .box-0,3..0.....
|   3808: 02 62 6f 78 2d 30 2c 32 00 00 00 0f 00 09 1b 00   .box-0,2........
|   3824: 62 6f 78 2d 30 2c 30 0d 0e 05 00 09 1d 00 74 6f   box-0,0.......to
|   3840: 70 20 68 61 6c 66 10 0d 05 00 09 23 00 62 6f 74   p half.....#.bot
|   3856: 74 6f 6d 20 68 61 6c 66 0f 0c 02 05 09 01 00 72   tom half.......r
|   3872: 69 67 68 74 20 68 61 6c 66 0e 0b 05 00 09 1f 00   ight half.......
|   3888: 6c 65 66 74 20 68 61 6c 66 14 0a 05 00 09 2b 00   left half.....+.
|   3904: 74 68 65 20 77 68 6f 6c 65 20 74 68 69 6e 67 0d   the whole thing.
|   3920: 09 05 00 09 1d 00 74 6f 70 20 65 64 67 65 10 08   ......top edge..
|   3936: 05 00 09 23 00 62 6f 74 74 6f 6d 20 65 64 67 65   ...#.bottom edge
|   3952: 0f 07 05 00 09 21 00 72 69 67 68 74 20 65 64 67   .....!.right edg
|   3968: 65 0e 06 05 00 09 1f 00 6c 65 66 74 20 65 64 67   e.......left edg
|   3984: 65 0b 05 05 00 09 19 00 63 65 6e 74 65 72 17 04   e.......center..
|   4000: 05 00 09 31 00 75 70 70 65 72 2d 72 69 67 68 74   ...1.upper-right
|   4016: 20 63 6f 72 6e 65 72 17 03 05 00 09 31 00 6c 6f    corner.....1.lo
|   4032: 77 65 72 2d 72 69 67 68 74 20 63 6f 72 6e 65 72   wer-right corner
|   4048: 16 02 05 00 09 2f 00 75 70 70 65 72 2d 6c 65 66   ...../.upper-lef
|   4064: 74 20 63 6f 72 6e 65 72 06 00 05 00 01 00 00 03   t corner........
|   4080: 0d 88 4f 05 00 01 1b 00 02 62 6f 78 2d 33 2c 31   ..O......box-3,1
| page 3 offset 8192
|      0: 05 00 00 00 01 0f fb 00 00 00 00 06 0f fb 00 00   ................
|    384: 00 00 00 00 00 00 00 89 50 03 04 00 93 24 00 00   ........P....$..
|    400: 00 11 00 00 00 00 00 00 00 00 00 00 00 00 00 00   ................
|    688: 00 00 00 00 42 c8 00 00 42 4c 00 00 42 00 00 00   ....B...BL..B...
|    720: 03 eb 40 40 00 00 40 80 00 00 00 00 00 00 3f 80   ..@@..@.......?.
|    736: 00 00 00 00 00 00 00 00 03 ea 40 00 00 00 40 40   ..........@...@@
|    752: 00 00 00 00 00 00 3f 80 00 00 00 00 00 00 00 00   ......?.........
|    768: 03 e9 3f 80 00 00 40 00 00 00 00 00 00 00 3f 80   ..?...@.......?.
|    784: 00 00 00 00 00 00 00 00 03 e8 00 00 00 00 3f 80   ..............?.
|    800: 00 00 00 00 00 00 3f 80 00 00 00 00 00 00 00 00   ......?.........
|   1616: 00 00 00 00 00 00 00 00 00 00 89 50 02 04 00 93   ...........P....
|   1632: 24 00 00 00 33 00 00 00 00 00 00 00 01 00 00 00   $...3...........
|   1648: 00 41 20 00 00 00 00 00 00 41 0e 00 00 00 00 00   .A ......A......
|   1664: 00 00 00 04 4f 40 40 00 00 40 80 00 00 3f 80 00   ....O@@..@...?..
|   1680: 00 40 00 00 00 00 00 00 00 00 00 04 4e 40 00 00   .@..........N@..
|   1696: 00 40 40 00 00 3f 80 00 00 40 00 00 00 00 00 00   .@@..?...@......
|   1712: 00 00 00 04 4d 3f 80 00 00 40 00 00 00 3f 80 00   ....M?...@...?..
|   1728: 00 40 00 00 00 00 00 00 00 00 00 04 4c 00 00 00   .@..........L...
|   1744: 00 3f 80 00 00 3f 80 00 00 40 00 00 00 00 00 00   .?...?...@......
|   1760: 00 00 00 04 b3 40 40 00 00 40 80 00 00 40 00 00   .....@@..@...@..
|   1776: 00 40 40 00 00 00 00 00 00 00 00 04 b2 40 00 00   .@@..........@..
|   1792: 00 40 40 00 00 40 00 00 00 40 40 00 00 00 00 00   .@@..@...@@.....
|   1808: 00 00 00 04 b1 3f 80 00 00 40 00 00 00 40 00 00   .....?...@...@..
|   1824: 00 40 40 00 00 00 00 00 00 00 00 04 b0 00 00 00   .@@.............
|   1840: 00 3f 80 00 00 40 00 00 00 40 40 00 00 00 00 00   .?...@...@@.....
|   1856: 00 00 00 05 17 40 40 00 00 40 80 00 00 40 40 00   .....@@..@...@@.
|   1872: 00 40 80 00 00 00 00 00 00 00 00 05 16 40 00 00   .@...........@..
|   1888: 00 40 40 00 00 40 40 00 00 40 80 00 00 00 00 00   .@@..@@..@......
|   1904: 00 00 00 05 15 3f 80 00 00 40 00 00 00 40 40 00   .....?...@...@@.
|   1920: 00 40 80 00 00 00 00 00 00 00 00 05 14 00 00 00   .@..............
|   1936: 00 3f 80 00 00 40 40 00 00 40 80 00 00 00 00 00   .?...@@..@......
|   1952: 00 00 00 05 7b 40 40 00 00 40 80 00 00 40 80 00   .....@@..@...@..
|   1968: 00 40 a0 00 00 00 00 00 00 00 00 05 7a 40 00 00   .@..........z@..
|   1984: 00 40 40 00 00 40 80 00 00 40 a0 00 00 00 00 00   .@@..@...@......
|   2000: 00 00 00 05 79 3f 80 00 00 40 00 00 00 40 80 00   ....y?...@...@..
|   2016: 00 40 a0 00 00 00 00 00 00 00 00 05 78 00 00 00   .@..........x...
|   2032: 00 3f 80 00 00 40 80 00 00 40 a0 00 00 00 00 00   .?...@...@......
|   2048: 00 00 00 05 df 40 40 00 00 40 80 00 00 40 a0 00   .....@@..@...@..
|   2064: 00 40 c0 00 00 00 00 00 00 00 00 05 de 40 00 00   .@...........@..
|   2080: 00 40 40 00 00 40 a0 00 00 40 c0 00 00 00 00 00   .@@..@...@......
|   2096: 00 00 00 05 dd 3f 80 00 00 40 00 00 00 40 a0 00   .....?...@...@..
|   2112: 00 40 c0 00 00 00 00 00 00 00 00 05 dc 00 00 00   .@..............
|   2128: 00 3f 80 00 00 40 a0 00 00 40 c0 00 00 00 00 00   .?...@...@......
|   2144: 00 00 00 06 43 40 40 00 00 40 80 00 00 40 c0 00   ....C@@..@...@..
|   2160: 00 40 e0 00 00 00 00 00 00 00 00 06 42 40 00 00   .@..........B@..
|   2176: 00 40 40 00 00 40 c0 00 00 40 e0 00 00 00 00 00   .@@..@...@......
|   2192: 00 00 00 06 41 3f 80 00 00 40 00 00 00 40 c0 00   ....A?...@...@..
|   2208: 00 40 e0 00 00 00 00 00 00 00 00 06 40 00 00 00   .@..........@...
|   2224: 00 3f 80 00 00 40 c0 00 00 40 e0 00 00 00 00 00   .?...@...@......
|   2240: 00 00 00 06 a7 40 40 00 00 40 80 00 00 40 e0 00   .....@@..@...@..
|   2256: 00 41 00 00 00 00 00 00 00 00 00 06 a6 40 00 00   .A...........@..
|   2272: 00 40 40 00 00 40 e0 00 00 41 00 00 00 00 00 00   .@@..@...A......
|   2288: 00 00 00 06 a5 3f 80 00 00 40 00 00 00 40 e0 00   .....?...@...@..
|   2304: 00 41 00 00 00 00 00 00 00 00 00 06 a4 00 00 00   .A..............
|   2320: 00 3f 80 00 00 40 e0 00 00 41 00 00 00 00 00 00   .?...@...A......
|   2336: 00 00 00 07 0a 40 00 00 00 40 40 00 00 41 00 00   .....@...@@..A..
|   2352: 00 41 10 00 00 00 00 00 00 00 00 07 09 3f 80 00   .A...........?..
|   2368: 00 40 00 00 00 41 00 00 00 41 10 00 00 00 00 00   .@...A...A......
|   2384: 00 00 00 07 08 00 00 00 00 3f 80 00 00 41 00 00   .........?...A..
|   2400: 00 41 10 00 00 00 00 00 00 00 00 07 6e 40 00 00   .A..........n@..
|   2416: 00 40 40 00 00 41 10 00 00 41 20 00 00 00 00 00   .@@..A...A .....
|   2432: 00 00 00 07 6d 3f 80 00 00 40 00 00 00 41 10 00   ....m?...@...A..
|   2448: 00 41 20 00 00 00 00 00 00 00 00 07 6c 00 00 00   .A .........l...
|   2464: 00 3f 80 00 00 41 10 00 00 41 20 00 00 00 00 00   .?...A...A .....
|   2480: 00 00 00 07 0b 40 40 00 00 40 80 00 00 41 00 00   .....@@..@...A..
|   2496: 00 41 10 00 00 00 00 00 00 00 00 07 6f 40 40 00   .A..........o@@.
|   2512: 00 40 80 00 00 41 10 00 00 41 20 00 00 00 00 00   .@...A...A .....
|   2528: 00 00 00 03 ec 40 80 00 00 40 a0 00 00 00 00 00   .....@...@......
|   2544: 00 3f 80 00 00 00 00 00 00 00 00 04 50 40 80 00   .?..........P@..
|   2560: 00 40 a0 00 00 3f 80 00 00 40 00 00 00 00 00 00   .@...?...@......
|   2576: 00 00 00 04 b4 40 80 00 00 40 a0 00 00 40 00 00   .....@...@...@..
|   2592: 00 40 40 00 00 00 00 00 00 00 00 05 18 40 80 00   .@@..........@..
|   2608: 00 40 a0 00 00 40 40 00 00 40 80 00 00 00 00 00   .@...@@..@......
|   2624: 00 00 00 05 7c 40 80 00 00 40 a0 00 00 40 80 00   ....|@...@...@..
|   2640: 00 40 a0 00 00 00 00 00 00 00 00 05 e0 40 80 00   .@...........@..
|   2656: 00 40 a0 00 00 40 a0 00 00 40 c0 00 00 00 00 00   .@...@...@......
|   2672: 00 00 00 06 44 40 80 00 00 40 a0 00 00 40 c0 00   ....D@...@...@..
|   2688: 00 40 e0 00 00 00 00 00 00 00 00 06 a8 40 80 00   .@...........@..
|   2704: 00 40 a0 00 00 40 e0 00 00 41 00 00 00 00 00 00   .@...@...A......
|   2720: 00 00 00 07 0c 40 80 00 00 40 a0 00 00 41 00 00   .....@...@...A..
|   2736: 00 41 10 00 00 00 00 00 00 00 00 07 70 40 80 00   .A..........p@..
|   2752: 00 40 a0 00 00 41 10 00 00 41 20 00 00 00 00 00   .@...A...A .....
|   2768: 00 00 00 03 ed 40 a0 00 00 40 c0 00 00 00 00 00   .....@...@......
|   2784: 00 3f 80 00 00 00 00 00 00 00 00 04 51 40 a0 00   .?..........Q@..
|   2800: 00 40 c0 00 00 3f 80 00 00 40 00 00 00 00 00 00   .@...?...@......
|   2816: 00 00 00 04 b5 40 a0 00 00 40 c0 00 00 40 00 00   .....@...@...@..
|   2832: 00 40 40 00 00 00 00 00 00 00 00 05 19 40 a0 00   .@@..........@..
|   2848: 00 40 c0 00 00 40 40 00 00 40 80 00 00 89 50 01   .@...@@..@....P.
|   2864: 04 00 93 24 00 01 00 02 00 00 00 00 00 00 00 03   ...$............
|   2880: 00 00 00 00 40 80 00 00 00 00 00 00 3f 80 00 00   ....@.......?...
|   2896: 00 00 00 00 00 00 00 02 00 00 00 00 41 20 00 00   ............A ..
|   2912: 00 00 00 00 41 20 00 00 00 00 00 00 00 00 00 00   ....A ..........
|   4080: 00 00 00 00 00 00 00 00 00 00 00 00 00 00 05 03   ................
| page 4 offset 12288
|      0: 0d 00 00 00 00 10 00 00 00 00 00 00 00 00 00 00   ................
| page 5 offset 16384
|      0: 0d 00 00 00 03 01 87 00 0b 2d 06 5a 01 87 00 00   .........-.Z....
|    384: 00 00 00 00 00 00 00 89 50 03 04 00 93 24 00 00   ........P....$..
|    400: 00 11 00 00 00 00 00 00 00 00 00 00 00 00 00 00   ................
|    688: 00 00 00 00 42 c8 00 00 42 4c 00 00 42 00 00 00   ....B...BL..B...
|    720: 03 eb 40 40 00 00 40 80 00 00 00 00 00 00 3f 80   ..@@..@.......?.
|    736: 00 00 00 00 00 00 00 00 03 ea 40 00 00 00 40 40   ..........@...@@
|    752: 00 00 00 00 00 00 3f 80 00 00 00 00 00 00 00 00   ......?.........
|    768: 03 e9 3f 80 00 00 40 00 00 00 00 00 00 00 3f 80   ..?...@.......?.
|    784: 00 00 00 00 00 00 00 00 03 e8 00 00 00 00 3f 80   ..............?.
|    800: 00 00 00 00 00 00 3f 80 00 00 00 00 00 00 00 00   ......?.........
|   1616: 00 00 00 00 00 00 00 00 00 00 89 50 02 04 00 93   ...........P....
|   1632: 24 00 00 00 2d 00 00 00 00 00 00 04 4c 00 00 00   $...-.......L...
|   1648: 00 3f 80 00 00 3f 80 00 00 40 00 00 00 00 00 00   .?...?...@......
|   1664: 00 00 00 04 b0 00 00 00 00 3f 80 00 00 40 00 00   .........?...@..
|   1680: 00 40 40 00 00 00 00 00 00 00 00 05 14 00 00 00   .@@.............
|   1696: 00 3f 80 00 00 40 40 00 00 40 80 00 00 00 00 00   .?...@@..@......
|   1712: 00 00 00 05 78 00 00 00 00 3f 80 00 00 40 80 00   ....x....?...@..
|   1728: 00 40 a0 00 00 00 00 00 00 00 00 05 dc 00 00 00   .@..............
|   1744: 00 3f 80 00 00 40 a0 00 00 40 c0 00 00 00 00 00   .?...@...@......
|   1760: 00 00 00 00 01 00 00 00 00 41 20 00 00 00 00 00   .........A .....
|   1776: 00 41 0e 00 00 00 00 00 00 00 00 04 4d 3f 80 00   .A..........M?..
|   1792: 00 40 00 00 00 3f 80 00 00 40 00 00 00 00 00 00   .@...?...@......
|   1808: 00 00 00 04 b1 3f 80 00 00 40 00 00 00 40 00 00   .....?...@...@..
|   1824: 00 40 40 00 00 00 00 00 00 00 00 05 15 3f 80 00   .@@..........?..
|   1840: 00 40 00 00 00 40 40 00 00 40 80 00 00 00 00 00   .@...@@..@......
|   1856: 00 00 00 05 79 3f 80 00 00 40 00 00 00 40 80 00   ....y?...@...@..
|   1872: 00 40 a0 00 00 00 00 00 00 00 00 05 dd 3f 80 00   .@...........?..
|   1888: 00 40 00 00 00 40 a0 00 00 40 c0 00 00 00 00 00   .@...@...@......
|   1904: 00 00 00 04 4e 40 00 00 00 40 40 00 00 3f 80 00   ....N@...@@..?..
|   1920: 00 40 00 00 00 00 00 00 00 00 00 04 b2 40 00 00   .@...........@..
|   1936: 00 40 40 00 00 40 00 00 00 40 40 00 00 00 00 00   .@@..@...@@.....
|   1952: 00 00 00 05 16 40 00 00 00 40 40 00 00 40 40 00   .....@...@@..@@.
|   1968: 00 40 80 00 00 00 00 00 00 00 00 05 7a 40 00 00   .@..........z@..
|   1984: 00 40 40 00 00 40 80 00 00 40 a0 00 00 00 00 00   .@@..@...@......
|   2000: 00 00 00 05 de 40 00 00 00 40 40 00 00 40 a0 00   .....@...@@..@..
|   2016: 00 40 c0 00 00 00 00 00 00 00 00 04 4f 40 40 00   .@..........O@@.
|   2032: 00 40 80 00 00 3f 80 00 00 40 00 00 00 00 00 00   .@...?...@......
|   2048: 00 00 00 04 b3 40 40 00 00 40 80 00 00 40 00 00   .....@@..@...@..
|   2064: 00 40 40 00 00 00 00 00 00 00 00 05 17 40 40 00   .@@..........@@.
|   2080: 00 40 80 00 00 40 40 00 00 40 80 00 00 00 00 00   .@...@@..@......
|   2096: 00 00 00 05 7b 40 40 00 00 40 80 00 00 40 80 00   .....@@..@...@..
|   2112: 00 40 a0 00 00 00 00 00 00 00 00 05 df 40 40 00   .@...........@@.
|   2128: 00 40 80 00 00 40 a0 00 00 40 c0 00 00 00 00 00   .@...@...@......
|   2144: 00 00 00 03 ec 40 80 00 00 40 a0 00 00 00 00 00   .....@...@......
|   2160: 00 3f 80 00 00 00 00 00 00 00 00 04 50 40 80 00   .?..........P@..
|   2176: 00 40 a0 00 00 3f 80 00 00 40 00 00 00 00 00 00   .@...?...@......
|   2192: 00 00 00 04 b4 40 80 00 00 40 a0 00 00 40 00 00   .....@...@...@..
|   2208: 00 40 40 00 00 00 00 00 00 00 00 05 18 40 80 00   .@@..........@..
|   2224: 00 40 a0 00 00 40 40 00 00 40 80 00 00 00 00 00   .@...@@..@......
|   2240: 00 00 00 05 7c 40 80 00 00 40 a0 00 00 40 80 00   ....|@...@...@..
|   2256: 00 40 a0 00 00 00 00 00 00 00 00 05 e0 40 80 00   .@...........@..
|   2272: 00 40 a0 00 00 40 a0 00 00 40 c0 00 00 00 00 00   .@...@...@......
|   2288: 00 00 00 03 f0 41 00 00 00 41 10 00 00 00 00 00   .....A...A......
|   2304: 00 3f 80 00 00 00 00 00 00 00 00 04 54 41 00 00   .?..........TA..
|   2320: 00 41 10 00 00 3f 80 00 00 40 00 00 00 00 00 00   .A...?...@......
|   2336: 00 00 00 04 b8 41 00 00 00 41 10 00 00 40 00 00   .....A...A...@..
|   2352: 00 40 40 00 00 00 00 00 00 00 00 05 1c 41 00 00   .@@..........A..
|   2368: 00 41 10 00 00 40 40 00 00 40 80 00 00 00 00 00   .A...@@..@......
|   2384: 00 00 00 05 80 41 00 00 00 41 10 00 00 40 80 00   .....A...A...@..
|   2400: 00 40 a0 00 00 00 00 00 00 00 00 05 e4 41 00 00   .@...........A..
|   2416: 00 41 10 00 00 40 a0 00 00 40 c0 00 00 00 00 00   .A...@...@......
|   2432: 00 00 00 06 48 41 00 00 00 41 10 00 00 40 c0 00   ....HA...A...@..
|   2448: 00 40 e0 00 00 00 00 00 00 00 00 06 ac 41 00 00   .@...........A..
|   2464: 00 41 10 00 00 40 e0 00 00 41 00 00 00 00 00 00   .A...@...A......
|   2480: 00 00 00 07 10 41 00 00 00 41 10 00 00 41 00 00   .....A...A...A..
|   2496: 00 41 10 00 00 00 00 00 00 00 00 03 f1 41 10 00   .A...........A..
|   2512: 00 41 20 00 00 00 00 00 00 3f 80 00 00 00 00 00   .A ......?......
|   2528: 00 00 00 04 55 41 10 00 00 41 20 00 00 3f 80 00   ....UA...A ..?..
|   2544: 00 40 00 00 00 00 00 00 00 00 00 04 b9 41 10 00   .@...........A..
|   2560: 00 41 20 00 00 40 00 00 00 40 40 00 00 00 00 00   .A ..@...@@.....
|   2576: 00 00 00 05 1d 41 10 00 00 41 20 00 00 40 40 00   .....A...A ..@@.
|   2592: 00 40 80 00 00 00 00 00 00 00 00 05 81 41 10 00   .@...........A..
|   2608: 00 41 20 00 00 40 80 00 00 40 a0 00 00 00 00 00   .A ..@...@......
|   2624: 00 00 00 05 e5 41 10 00 00 41 20 00 00 40 a0 00   .....A...A ..@..
|   2640: 00 40 c0 00 00 00 00 00 00 00 00 06 49 41 10 00   .@..........IA..
|   2656: 00 41 20 00 00 40 c0 00 00 40 e0 00 00 00 00 00   .A ..@...@......
|   2672: 00 00 00 06 ad 41 10 00 00 41 20 00 00 40 e0 00   .....A...A ..@..
|   2688: 00 41 00 00 00 00 00 00 00 00 00 07 11 41 10 00   .A...........A..
|   2704: 00 41 20 00 00 41 00 00 00 41 10 00 00 00 00 00   .A ..A...A......
|   2848: 00 00 00 00 00 00 00 00 00 00 00 00 00 89 50 01   ..............P.
|   2864: 04 00 93 24 00 01 00 04 00 00 00 00 00 00 00 03   ...$............
|   2880: 00 00 00 00 40 80 00 00 00 00 00 00 3f 80 00 00   ....@.......?...
|   2896: 00 00 00 00 00 00 00 02 00 00 00 00 41 20 00 00   ............A ..
|   2912: 00 00 00 00 41 10 00 00 00 00 00 00 00 00 00 04   ....A...........
|   2928: 00 00 00 00 41 20 00 00 40 c0 00 00 41 20 00 00   ....A ..@...A ..
|   2944: 00 00 00 00 00 00 00 05 40 a0 00 00 41 00 00 00   ........@...A...
|   2960: 00 00 00 00 41 20 00 00 00 00 00 00 00 00 00 00   ....A ..........
| page 6 offset 20480
|      0: 0d 00 00 00 02 06 5a 00 0b 2d 06 5a 00 00 00 00   ......Z..-.Z....
|   1616: 00 00 00 00 00 00 00 00 00 00 89 50 05 04 00 93   ...........P....
|   1632: 24 00 00 00 1c 00 00 00 00 00 00 03 ed 40 a0 00   $............@..
|   1648: 00 40 c0 00 00 00 00 00 00 3f 80 00 00 00 00 00   .@.......?......
|   1664: 00 00 00 04 51 40 a0 00 00 40 c0 00 00 3f 80 00   ....Q@...@...?..
|   1680: 00 40 00 00 00 00 00 00 00 00 00 04 b5 40 a0 00   .@...........@..
|   1696: 00 40 c0 00 00 40 00 00 00 40 40 00 00 00 00 00   .@...@...@@.....
|   1712: 00 00 00 05 19 40 a0 00 00 40 c0 00 00 40 40 00   .....@...@...@@.
|   1728: 00 40 80 00 00 00 00 00 00 00 00 05 7d 40 a0 00   .@...........@..
|   1744: 00 40 c0 00 00 40 80 00 00 40 a0 00 00 00 00 00   .@...@...@......
|   1760: 00 00 00 05 e1 40 a0 00 00 40 c0 00 00 40 a0 00   .....@...@...@..
|   1776: 00 40 c0 00 00 00 00 00 00 00 00 06 45 40 a0 00   .@..........E@..
|   1792: 00 40 c0 00 00 40 c0 00 00 40 e0 00 00 00 00 00   .@...@...@......
|   1808: 00 00 00 06 a9 40 a0 00 00 40 c0 00 00 40 e0 00   .....@...@...@..
|   1824: 00 41 00 00 00 00 00 00 00 00 00 07 0d 40 a0 00   .A...........@..
|   1840: 00 40 c0 00 00 41 00 00 00 41 10 00 00 00 00 00   .@...A...A......
|   1856: 00 00 00 03 ee 40 c0 00 00 40 e0 00 00 00 00 00   .....@...@......
|   1872: 00 3f 80 00 00 00 00 00 00 00 00 04 52 40 c0 00   .?..........R@..
|   1888: 00 40 e0 00 00 3f 80 00 00 40 00 00 00 00 00 00   .@...?...@......
|   1904: 00 00 00 04 b6 40 c0 00 00 40 e0 00 00 40 00 00   .....@...@...@..
|   1920: 00 40 40 00 00 00 00 00 00 00 00 05 1a 40 c0 00   .@@..........@..
|   1936: 00 40 e0 00 00 40 40 00 00 40 80 00 00 00 00 00   .@...@@..@......
|   1952: 00 00 00 05 7e 40 c0 00 00 40 e0 00 00 40 80 00   ....~@...@...@..
|   1968: 00 40 a0 00 00 00 00 00 00 00 00 05 e2 40 c0 00   .@...........@..
|   1984: 00 40 e0 00 00 40 a0 00 00 40 c0 00 00 00 00 00   .@...@...@......
|   2000: 00 00 00 06 46 40 c0 00 00 40 e0 00 00 40 c0 00   ....F@...@...@..
|   2016: 00 40 e0 00 00 00 00 00 00 00 00 06 aa 40 c0 00   .@...........@..
|   2032: 00 40 e0 00 00 40 e0 00 00 41 00 00 00 00 00 00   .@...@...A......
|   2048: 00 00 00 07 0e 40 c0 00 00 40 e0 00 00 41 00 00   .....@...@...A..
|   2064: 00 41 10 00 00 00 00 00 00 00 00 03 ef 40 e0 00   .A...........@..
|   2080: 00 41 00 00 00 00 00 00 00 3f 80 00 00 00 00 00   .A.......?......
|   2096: 00 00 00 04 53 40 e0 00 00 41 00 00 00 3f 80 00   ....S@...A...?..
|   2112: 00 40 00 00 00 00 00 00 00 00 00 04 b7 40 e0 00   .@...........@..
|   2128: 00 41 00 00 00 40 00 00 00 40 40 00 00 00 00 00   .A...@...@@.....
|   2144: 00 00 00 05 1b 40 e0 00 00 41 00 00 00 40 40 00   .....@...A...@@.
|   2160: 00 40 80 00 00 00 00 00 00 00 00 05 7f 40 e0 00   .@...........@..
|   2176: 00 41 00 00 00 40 80 00 00 40 a0 00 00 00 00 00   .A...@...@......
|   2192: 00 00 00 05 e3 40 e0 00 00 41 00 00 00 40 a0 00   .....@...A...@..
|   2208: 00 40 c0 00 00 00 00 00 00 00 00 06 47 40 e0 00   .@..........G@..
|   2224: 00 41 00 00 00 40 c0 00 00 40 e0 00 00 00 00 00   .A...@...@......
|   2240: 00 00 00 06 ab 40 e0 00 00 41 00 00 00 40 e0 00   .....@...A...@..
|   2256: 00 41 00 00 00 00 00 00 00 00 00 07 0f 40 e0 00   .A...........@..
|   2272: 00 41 00 00 00 41 00 00 00 41 10 00 00 00 00 00   .A...A...A......
|   2288: 00 00 00 07 73 40 e0 00 00 41 00 00 00 41 10 00   ....s@...A...A..
|   2304: 00 41 20 00 00 00 00 00 00 00 00 00 00 00 00 00   .A .............
|   2848: 00 00 00 00 00 00 00 00 00 00 00 00 00 89 50 04   ..............P.
|   2864: 04 00 93 24 00 00 00 18 00 00 00 00 00 00 06 43   ...$...........C
|   2880: 40 40 00 00 40 80 00 00 40 c0 00 00 40 e0 00 00   @@..@...@...@...
|   2896: 00 00 00 00 00 00 06 42 40 00 00 00 40 40 00 00   .......B@...@@..
|   2912: 40 c0 00 00 40 e0 00 00 00 00 00 00 00 00 06 41   @...@..........A
|   2928: 3f 80 00 00 40 00 00 00 40 c0 00 00 40 e0 00 00   ?...@...@...@...
|   2944: 00 00 00 00 00 00 06 40 00 00 00 00 3f 80 00 00   .......@....?...
|   2960: 40 c0 00 00 40 e0 00 00 00 00 00 00 00 00 06 44   @...@..........D
|   2976: 40 80 00 00 40 a0 00 00 40 c0 00 00 40 e0 00 00   @...@...@...@...
|   2992: 00 00 00 00 00 00 06 a7 40 40 00 00 40 80 00 00   ........@@..@...
|   3008: 40 e0 00 00 41 00 00 00 00 00 00 00 00 00 06 a6   @...A...........
|   3024: 40 00 00 00 40 40 00 00 40 e0 00 00 41 00 00 00   @...@@..@...A...
|   3040: 00 00 00 00 00 00 06 a5 3f 80 00 00 40 00 00 00   ........?...@...
|   3056: 40 e0 00 00 41 00 00 00 00 00 00 00 00 00 06 a4   @...A...........
|   3072: 00 00 00 00 3f 80 00 00 40 e0 00 00 41 00 00 00   ....?...@...A...
|   3088: 00 00 00 00 00 00 06 a8 40 80 00 00 40 a0 00 00   ........@...@...
|   3104: 40 e0 00 00 41 00 00 00 00 00 00 00 00 00 07 0a   @...A...........
|   3120: 40 00 00 00 40 40 00 00 41 00 00 00 41 10 00 00   @...@@..A...A...
|   3136: 00 00 00 00 00 00 07 09 3f 80 00 00 40 00 00 00   ........?...@...
|   3152: 41 00 00 00 41 10 00 00 00 00 00 00 00 00 07 08   A...A...........
|   3168: 00 00 00 00 3f 80 00 00 41 00 00 00 41 10 00 00   ....?...A...A...
|   3184: 00 00 00 00 00 00 07 0b 40 40 00 00 40 80 00 00   ........@@..@...
|   3200: 41 00 00 00 41 10 00 00 00 00 00 00 00 00 07 0c   A...A...........
|   3216: 40 80 00 00 40 a0 00 00 41 00 00 00 41 10 00 00   @...@...A...A...
|   3232: 00 00 00 00 00 00 07 6e 40 00 00 00 40 40 00 00   .......n@...@@..
|   3248: 41 10 00 00 41 20 00 00 00 00 00 00 00 00 07 6d   A...A .........m
|   3264: 3f 80 00 00 40 00 00 00 41 10 00 00 41 20 00 00   ?...@...A...A ..
|   3280: 00 00 00 00 00 00 07 6c 00 00 00 00 3f 80 00 00   .......l....?...
|   3296: 41 10 00 00 41 20 00 00 00 00 00 00 00 00 07 6f   A...A .........o
|   3312: 40 40 00 00 40 80 00 00 41 10 00 00 41 20 00 00   @@..@...A...A ..
|   3328: 00 00 00 00 00 00 07 70 40 80 00 00 40 a0 00 00   .......p@...@...
|   3344: 41 10 00 00 41 20 00 00 00 00 00 00 00 00 07 71   A...A .........q
|   3360: 40 a0 00 00 40 c0 00 00 41 10 00 00 41 20 00 00   @...@...A...A ..
|   3376: 00 00 00 00 00 00 07 72 40 c0 00 00 40 e0 00 00   .......r@...@...
|   3392: 41 10 00 00 41 20 00 00 00 00 00 00 00 00 07 74   A...A .........t
|   3408: 41 00 00 00 41 10 00 00 41 10 00 00 41 20 00 00   A...A...A...A ..
|   3424: 00 00 00 00 00 00 07 75 41 10 00 00 41 20 00 00   .......uA...A ..
|   3440: 41 10 00 00 41 20 00 00 00 00 00 00 00 00 00 00   A...A ..........
| end c1b.db
  }]
  catchsql {
     PRAGMA writable_schema = 1;
     SELECT rtreecheck('t1');
  }
} {1 {SQL logic error}}

do_test rtreefuzz001-200 {
  sqlite3 db {}
  db deserialize [decode_hexdb {
| size 16384 pagesize 4096 filename c3.db
| page 1 offset 0
|      0: 53 51 4c 69 74 65 20 66 6f 72 6d 61 74 20 33 00   SQLite format 3.
|     16: 10 00 01 01 00 40 20 20 00 00 00 00 00 00 00 04   .....@  ........
|     32: 00 00 00 00 01 00 00 00 00 00 00 04 00 00 00 04   ................
|     48: 00 00 00 00 00 00 00 00 00 00 00 01 00 00 00 00   ................
|     96: 00 00 00 00 0d 00 00 00 04 0e 9c 00 0f ad 0f 4f   ...............O
|    112: 0e fc 0e 9c 00 00 00 00 00 00 00 00 00 00 00 00   ................
|   3728: 00 00 00 00 00 00 00 00 00 00 00 00 5e 04 07 17   ............^...
|   3744: 1f 1f 01 81 0b 74 61 62 6c 65 74 31 5f 70 61 72   .....tablet1_par
|   3760: 65 6e 74 74 31 5f 70 61 72 65 6e 74 04 43 52 45   entt1_parent.CRE
|   3776: 41 54 45 20 54 41 42 4c 45 20 22 74 31 5f 70 61   ATE TABLE .t1_pa
|   3792: 72 65 6e 74 22 28 6e 6f 64 65 6e 6f 20 49 4e 54   rent.(nodeno INT
|   3808: 45 47 45 52 20 50 52 49 4d 41 52 59 20 4b 45 59   EGER PRIMARY KEY
|   3824: 2c 70 61 72 65 6e 74 6e 6f 64 65 29 51 03 06 17   ,parentnode)Q...
|   3840: 1b 1b 01 7b 74 61 62 6c 65 74 31 5f 6e 6f 64 65   ....tablet1_node
|   3856: 74 31 5f 6e 6f 64 65 03 43 52 45 41 54 45 20 54   t1_node.CREATE T
|   3872: 41 42 4c 45 20 22 74 31 5f 6e 6f 64 65 22 28 6e   ABLE .t1_node.(n
|   3888: 6f 64 65 6e 6f 20 49 4e 54 45 47 45 52 20 50 52   odeno INTEGER PR
|   3904: 49 4d 41 52 59 20 4b 45 59 2c 64 61 74 61 29 5c   IMARY KEY,data).
|   3920: 02 07 17 1d 1d 01 81 0b 74 61 62 6c 65 74 31 5f   ........tablet1_
|   3936: 72 6f 77 69 64 74 31 5f 72 6f 77 69 64 02 43 52   rowidt1_rowid.CR
|   3952: 45 41 54 45 20 54 41 42 4c 45 20 22 74 31 5f 72   EATE TABLE .t1_r
|   3968: 6f 77 69 64 22 28 72 6f 77 69 64 20 49 4e 54 45   owid.(rowid INTE
|   3984: 47 45 52 20 50 52 49 4d 41 52 59 20 4b 45 59 2c   GER PRIMARY KEY,
|   4000: 6e 6f 64 65 6e 6f 2c 61 30 2c 61 31 29 51 01 07   nodeno,a0,a1)Q..
|   4016: 17 11 11 08 81 0f 74 61 62 6c 65 74 31 74 31 43   ......tablet1t1C
|   4032: 52 45 41 54 45 20 56 49 52 54 55 41 4c 20 54 41   REATE VIRTUAL TA
|   4048: 42 4c 45 20 74 31 20 55 53 49 4e 47 20 72 74 72   BLE t1 USING rtr
|   4064: 65 65 28 69 64 2c 78 30 2c 78 31 2c 79 30 2c 79   ee(id,x0,x1,y0,y
|   4080: 31 2c 2b 6c 61 62 65 6c 2c 2b 6f 74 68 65 72 29   1,+label,+other)
| page 2 offset 4096
|      0: 0d 00 00 00 0e 0e f7 00 0f e8 0f d0 0f b7 0f 9e   ................
|     16: 0f 91 0f 81 0f 70 0f 5e 0f 4f 0f 39 0f 29 0f 18   .....p.^.O.9.)..
|     32: 0f 06 0e f7 00 00 00 00 00 00 00 00 00 00 00 00   ................
|   3824: 00 00 00 00 00 00 00 0d 0e 05 00 09 1d 00 74 6f   ..............to
|   3840: 70 20 68 61 6c 66 10 0d 05 00 09 23 00 62 6f 74   p half.....#.bot
|   3856: 74 6f 6d 20 68 61 6c 66 0f 0c 05 00 09 21 00 72   tom half.....!.r
|   3872: 69 67 68 74 20 68 61 6c 66 0e 0b 05 00 09 1f 00   ight half.......
|   3888: 6c 65 66 74 20 68 61 6c 66 14 0a 05 00 09 2b 00   left half.....+.
|   3904: 74 68 65 20 77 68 6f 6c 65 20 74 68 69 6e 67 0d   the whole thing.
|   3920: 09 05 00 09 1d 00 74 6f 70 20 65 64 67 65 10 08   ......top edge..
|   3936: 05 00 09 23 00 62 6f 74 74 6f 6d 20 65 64 67 65   ...#.bottom edge
|   3952: 0f 07 05 00 09 21 00 72 69 67 68 74 20 65 64 67   .....!.right edg
|   3968: 65 0e 06 05 00 09 1f 00 6c 65 66 74 20 65 64 67   e.......left edg
|   3984: 65 0b 05 05 00 09 19 00 63 65 6e 74 65 72 17 04   e.......center..
|   4000: 05 00 09 31 00 75 70 70 65 72 2d 72 69 67 68 74   ...1.upper-right
|   4016: 20 63 6f 72 6e 65 72 17 03 05 00 09 31 00 6c 6f    corner.....1.lo
|   4032: 77 65 72 2d 72 69 67 68 74 27 60 f6 32 6e 65 72   wer-right'`.2ner
|   4048: 16 02 05 00 09 2f 00 75 70 70 65 72 2d 6c 65 66   ...../.upper-lef
|   4064: 74 20 63 6f 72 6e 65 72 16 01 05 00 09 2f 00 6c   t corner...../.l
|   4080: 6f 77 65 72 2d 6c 65 66 74 20 63 6f 72 6e 65 72   ower-left corner
| page 3 offset 8192
|      0: 0d 00 00 00 02 0b 2d 00 0b 2d 00 00 00 00 00 00   ......-..-......
|   2848: 00 00 00 00 00 00 00 00 00 00 00 00 00 89 50 01   ..............P.
|   2864: 04 00 93 24 00 00 00 0e 00 00 00 00 00 00 00 01   ...$............
|   2880: 00 00 00 00 41 20 00 00 00 00 00 00 41 20 01 00   ....A ......A ..
|   2896: 00 00 00 00 00 00 00 02 00 00 00 00 41 00 00 04   ............A...
|   2912: 2b 40 00 0c 42 c8 00 00 00 00 00 00 00 00 00 03   +@..B...........
|   2928: 42 b4 00 00 42 c8 00 00 00 00 00 00 41 20 00 00   B...B.......A ..
|   2944: 00 00 00 00 00 00 00 04 42 b4 00 00 42 c8 00 00   ........B...B...
|   2960: 42 b4 00 00 42 c8 00 00 00 00 00 00 00 00 00 05   B...B...........
|   2976: 42 20 00 00 42 70 00 00 42 20 00 00 42 70 00 00   B ..Bp..B ..Bp..
|   2992: 00 00 00 00 00 00 00 60 00 00 00 04 0a 00 00 00   .......`........
|   3008: 00 00 00 42 c8 00 00 00 00 00 00 00 00 00 07 42   ...B...........B
|   3024: be 00 00 42 c8 00 00 00 00 00 00 42 c8 00 00 00   ...B.......B....
|   3040: 00 00 00 00 00 00 08 00 00 00 00 42 c8 00 00 00   ...........B....
|   3056: 00 00 00 40 a0 00 00 00 00 00 00 00 00 00 09 00   ...@............
|   3072: 00 00 00 42 c8 00 00 42 be 00 00 42 c8 00 00 00   ...B...B...B....
|   3088: 00 00 00 00 00 00 0a 00 00 00 00 42 c8 00 00 00   ...........B....
|   3104: 00 00 00 42 c8 00 00 00 00 00 00 00 00 00 0b 00   ...B............
|   3120: 00 00 00 42 48 00 00 00 00 00 04 2c 80 00 00 00   ...BH......,....
|   3136: 00 00 00 00 00 00 c4 24 c0 00 04 2c 80 00 00 00   .......$...,....
|   3152: 00 00 04 2c 80 00 00 00 00 00 00 00 00 00 d0 00   ...,............
|   3168: 00 00 04 2c 80 00 00 00 00 00 04 24 80 00 00 00   ...,.......$....
|   3184: 00 00 00 00 00 00 e0 00 00 00 04 2c 80 00 04 24   ...........,...$
|   3200: c0 00 04 2c 00 00 00 00 00 00 00 00 00 00 00 00   ...,............
| page 4 offset 12288
|      0: 0d 00 00 00 00 10 00 00 00 00 00 00 00 00 00 00   ................
| end c3.db
  }]
  catchsql {
    WITH RECURSIVE
      c1(x) AS (VALUES(0) UNION ALL SELECT x+1 FROM c1 WHERE x<99),
      c2(y) AS (VALUES(0) UNION ALL SELECT y+1 FROM c2 WHERE y<99)
    INSERT INTO t1(id, x0,x1,y0,y1,label)
      SELECT 1000+x+y*100, x, x+1, y, y+1, printf('box-%d,%d',x,y) FROM c1, c2;
  }
} {1 {database disk image is malformed}}
do_test rtreefuzz001-210 {
  catchsql {
    SELECT rtreecheck('t1');
  }
} {/1 .*corrupt.*/}

do_test rtreefuzz001-300 {
  sqlite3 db {}
  db deserialize [decode_hexdb {
| size 16384 pagesize 4096 filename c4.db
| page 1 offset 0
|      0: 53 51 4c 69 74 65 20 66 6f 72 6d 61 74 20 33 00   SQLite format 3.
|     16: 10 00 01 01 00 40 20 20 00 00 00 00 00 00 00 04   .....@  ........
|     32: 00 00 00 00 00 00 00 00 00 00 00 04 00 00 00 04   ................
|     96: 00 00 00 00 0d 00 00 00 04 0e 9c 00 0f ad 0f 4f   ...............O
|    112: 0e fc 0e 9c 00 00 00 00 00 00 00 00 00 00 00 00   ................
|   3728: 00 00 00 00 00 00 00 00 00 00 00 00 5e 04 07 17   ............^...
|   3744: 1f 1f 01 81 0b 74 61 62 6c 65 74 31 5f 70 61 72   .....tablet1_par
|   3760: 65 6e 74 74 31 5f 70 61 72 65 6e 74 04 43 52 45   entt1_parent.CRE
|   3776: 41 54 45 20 54 41 42 4c 45 20 22 74 31 5f 70 61   ATE TABLE .t1_pa
|   3792: 72 65 6e 74 22 28 6e 6f 64 65 6e 6f 20 49 4e 54   rent.(nodeno INT
|   3808: 45 47 45 52 20 50 52 49 4d 41 52 59 20 4b 45 59   EGER PRIMARY KEY
|   3824: 2c 70 61 72 65 6e 74 6e 6f 64 65 29 51 03 06 17   ,parentnode)Q...
|   3840: 1b 1b 01 7b 74 61 62 6c 65 74 31 5f 6e 6f 64 65   ....tablet1_node
|   3856: 74 31 5f 6e 6f 64 65 03 43 52 45 41 54 45 20 54   t1_node.CREATE T
|   3872: 41 42 4c 45 20 22 74 31 5f 6e 6f 64 65 22 28 6e   ABLE .t1_node.(n
|   3888: 6f 64 65 6e 6f 20 49 4e 54 45 47 45 52 20 50 52   odeno INTEGER PR
|   3904: 49 4d 41 52 59 20 4b 45 59 2c 64 61 74 61 29 5c   IMARY KEY,data).
|   3920: 02 07 17 1d 1d 01 81 0b 74 61 62 6c 65 74 31 5f   ........tablet1_
|   3936: 72 6f 77 69 64 74 31 5f 72 6f 77 69 64 02 43 52   rowidt1_rowid.CR
|   3952: 45 41 54 45 20 54 41 42 4c 45 20 22 74 31 5f 72   EATE TABLE .t1_r
|   3968: 6f 77 69 64 22 28 72 6f 77 69 64 20 49 4e 54 45   owid.(rowid INTE
|   3984: 47 45 72 20 50 52 49 4d 41 52 59 20 4b 45 59 2c   GEr PRIMARY KEY,
|   4000: 6e 6f 64 65 6e 6f 2c 61 30 2c 61 31 29 51 01 07   nodeno,a0,a1)Q..
|   4016: 17 11 11 08 81 0f 74 61 62 6c 65 74 31 74 31 43   ......tablet1t1C
|   4032: 52 45 41 54 45 20 56 49 52 54 55 41 4c 20 54 41   REATE VIRTUAL TA
|   4048: 42 4c 45 20 74 31 20 55 53 49 4e 47 20 72 74 72   BLE t1 USING rtr
|   4064: 65 65 28 69 64 2c 78 30 2c 78 31 2c 79 30 2c 79   ee(id,x0,x1,y0,y
|   4080: 31 2c 2b 6c 61 62 65 6c 2c 2b 6f 74 68 65 72 29   1,+label,+other)
| page 2 offset 4096
|      0: 0d 00 00 00 0e 0e f7 00 0f e8 0f 00 fb 70 f9 e0   .............p..
|     16: f9 10 f8 10 f7 00 f5 e0 f4 f0 f3 90 f2 90 f1 80   ................
|     32: f0 60 ef 00 00 00 00 00 00 00 00 00 00 00 00 00   .`..............
|   3824: 00 00 00 00 00 00 00 0d 0e 05 00 09 1d 00 74 6f   ..............to
|   3840: 70 20 68 61 6c 66 10 0d 05 00 09 23 00 62 6f 74   p half.....#.bot
|   3856: 74 6f 6d 20 68 61 6c 66 0f 0c 05 00 09 21 00 72   tom half.....!.r
|   3872: 69 67 68 74 20 68 61 6c 66 0e 0b 05 00 09 1f 00   ight half.......
|   3888: 6c 65 66 74 20 68 61 6c 66 14 0a 05 00 09 2b 00   left half.....+.
|   3904: 00 03 98 20 49 98 2f 6c 62 05 74 68 69 6e 67 0d   ... I./lb.thing.
|   3920: 09 05 00 09 1d 00 74 6f 70 20 65 64 67 65 10 08   ......top edge..
|   3936: 05 00 09 23 00 62 6f 74 74 6f 6d 20 65 64 67 65   ...#.bottom edge
|   3952: 0f 07 05 00 09 21 00 72 69 67 68 74 20 65 64 67   .....!.right edg
|   3968: 65 0e 06 05 00 09 1f 00 6c 65 66 74 20 65 64 67   e.......left edg
|   3984: 65 0b 05 05 00 09 19 00 63 65 6e 74 65 72 17 04   e.......center..
|   4000: 05 00 09 31 00 75 70 70 65 72 2d 72 69 67 68 74   ...1.upper-right
|   4016: 20 63 6f 72 6e 65 72 17 03 05 00 09 31 00 6c 6f    corner.....1.lo
|   4032: 77 65 72 2d 72 69 67 68 74 20 63 6f 72 6e 65 72   wer-right corner
|   4048: 16 02 05 00 09 2f 00 75 70 70 65 72 2d 6c 65 66   ...../.upper-lef
|   4064: 74 20 63 6f 72 6e 65 72 16 01 05 00 09 2f 00 6c   t corner...../.l
|   4080: 6f 77 65 72 2d 6c 65 66 74 20 63 6f 72 6e 65 72   ower-left corner
| page 3 offset 8192
|      0: 0d 00 00 00 01 0b 2d 00 0b 2d 00 00 00 00 00 00   ......-..-......
|   2848: 00 00 00 00 00 00 00 00 00 00 00 00 00 89 50 01   ..............P.
|   2864: 04 00 93 24 00 00 00 0e 00 00 00 00 00 00 00 01   ...$............
|   2880: 00 00 00 04 01 20 00 00 00 00 00 04 12 00 00 00   ..... ..........
|   2896: 00 00 00 00 00 00 00 23 00 00 00 00 41 20 00 00   .......#....A ..
|   2912: 42 b4 00 00 42 c8 00 00 00 00 00 00 00 00 00 03   B...B...........
|   2928: 42 b4 00 00 42 c8 00 00 00 00 00 00 41 20 00 00   B...B.......A ..
|   2944: 00 00 00 00 00 00 00 04 42 b4 00 00 42 c8 00 00   ........B...B...
|   2960: 42 b4 00 00 42 c8 00 00 00 00 00 00 00 00 00 05   B...B...........
|   2976: 42 20 00 00 42 70 00 00 42 20 00 00 42 70 00 00   B ..Bp..B ..Bp..
|   2992: 00 00 00 00 00 00 00 06 00 00 00 00 40 a0 00 00   ............@...
|   3008: 00 00 00 04 2c 80 00 00 00 00 00 00 00 00 00 74   ....,..........t
|   3024: 2b e0 00 04 2c 80 00 04 2c 80 00 00 00 00 00 00   +...,...,.......
|   3040: 00 00 00 80 00 00 00 04 2c 80 00 00 00 00 00 04   ........,.......
|   3056: 0a 00 00 00 00 00 b0 80 00 00 04 2c 80 00 04 2b   ...........,...+
|   3072: e0 00 04 2c 80 00 00 00 00 00 00 00 00 00 a0 00   ...,............
|   3088: 00 00 04 2c 80 00 00 00 00 00 04 2c 80 00 00 00   ...,.......,....
|   3104: 00 00 00 00 00 00 b0 00 00 00 04 24 80 00 00 00   ...........$....
|   3120: 00 00 04 2c 80 00 00 00 00 00 00 00 50 00 91 f0   ...,........P...
|   3136: 06 c6 56 67 42 06 86 16 c6 61 40 a0 50 00 92 b0   ..VgB....a@.P...
|   3152: 07 46 86 52 07 76 86 f6 c6 52 07 46 86 96 e6 70   .F.R.v...R.F...p
|   3168: d0 90 50 00 91 d0 07 46 f7 02 06 56 46 76 51 00   ..P....F...VFvQ.
|   3184: 80 50 00 92 30 06 26 f7 47 46 f6 d2 06 56 46 76   .P..0.&.GF...VFv
|   3200: 50 f0 70 50 00 92 10 07 26 96 76 87 42 06 56 46   P.pP....&.v.B.VF
|   3216: 76 50 e0 60 50 00 91 f0 06 c6 56 67 42 06 56 46   vP.`P.....VgB.VF
|   3232: 76 50 b0 50 50 00 91 90 06 36 56 e7 46 57 21 70   vP.PP....6V.FW!p
|   3248: 40 50 00 93 10 07 57 07 06 57 22 d7 26 96 76 87   @P....W..W..&.v.
|   3264: 42 06 36 f7 26 e6 57 21 70 30 50 00 93 10 06 c6   B.6.&.W!p0P.....
|   3280: f7 76 57 22 d7 26 96 76 87 42 06 36 f7 26 e6 57   .vW..&.v.B.6.&.W
|   3296: 21 60 20 50 00 92 f0 07 57 07 06 57 22 d6 c6 56   !` P....W..W...V
|   3312: 60 00 00 c4 24 c0 00 04 2c 80 00 00 00 00 00 04   `...$...,.......
|   3328: 2c 80 00 00 00 00 00 00 00 00 00 d0 00 00 00 04   ,...............
|   3344: 2c 80 00 00 00 00 00 04 24 80 00 00 00 00 00 00   ,.......$.......
|   3360: 00 00 00 e0 00 00 00 04 2c 80 00 04 24 c0 00 04   ........,...$...
|   3376: 2c 00 00 00 00 00 00 00 00 00 00 00 00 00 00 00   ,...............
| page 4 offset 12288
|      0: 0d 00 00 00 00 10 00 00 00 00 00 00 00 00 00 00   ................
| end c4.db
  }]
  catchsql {
    UPDATE t1 SET label='x';
  }
} {1 {rtree constraint failed: t1.(y0<=y1)}}
do_test rtreefuzz001-310 {
  catchsql {
    SELECT rtreecheck('t1');
  }
} {/1 .*corrupt.*/}

do_test rtreefuzz001-400 {
  sqlite3 db {}
  db deserialize [decode_hexdb {
| size 16384 pagesize 4096 filename c7.db
| page 1 offset 0
|      0: 53 51 4c 69 74 65 20 66 6f 72 6d 61 74 20 33 00   SQLite format 3.
|     16: 10 00 01 01 00 40 20 20 00 00 00 00 00 00 00 04   .....@  ........
|     32: 00 00 00 00 01 00 00 00 00 00 00 04 00 00 00 04   ................
|     48: 00 00 00 00 00 00 00 00 00 00 00 01 00 00 00 00   ................
|     96: 00 00 00 00 0d 00 00 00 04 0e 9c 00 0f ad 0f 4f   ...............O
|    112: 0e fc 0e 9c 00 00 00 00 00 00 00 00 00 00 00 00   ................
|   3728: 00 00 00 00 00 00 00 00 00 00 00 00 5e 04 07 17   ............^...
|   3744: 1f 1f 01 81 0b 74 61 62 6c 65 74 31 5f 70 61 72   .....tablet1_par
|   3760: 65 6e 74 74 31 5f 70 61 72 65 6e 74 04 43 52 45   entt1_parent.CRE
|   3776: 41 54 45 20 54 41 42 4c 45 20 22 74 31 5f 70 61   ATE TABLE .t1_pa
|   3792: 72 65 6e 74 22 28 6e 6f 64 65 6e 6f 20 49 4e 54   rent.(nodeno INT
|   3808: 45 47 45 52 20 50 52 49 4d 41 52 59 20 4b 45 59   EGER PRIMARY KEY
|   3824: 2c 70 61 72 65 6e 74 6e 6f 64 65 29 51 03 06 17   ,parentnode)Q...
|   3840: 1b 1b 01 7b 74 61 62 6c 65 74 31 5f 6e 6f 64 65   ....tablet1_node
|   3856: 74 31 5f 6e 6f 64 65 03 43 52 45 41 54 45 20 54   t1_node.CREATE T
|   3872: 41 42 4c 45 20 22 74 31 5f 6e 6f 64 65 22 28 6e   ABLE .t1_node.(n
|   3888: 6f 64 65 6e 6f 20 49 4e 54 45 47 45 52 20 50 52   odeno INTEGER PR
|   3904: 49 4d 41 52 59 20 4b 45 59 2c 64 61 74 61 29 5c   IMARY KEY,data).
|   3920: 02 07 17 1d 1d 01 81 0b 74 61 62 6c 65 74 31 5f   ........tablet1_
|   3936: 72 6f 77 69 64 74 31 5f 72 6f 77 69 64 02 43 52   rowidt1_rowid.CR
|   3952: 45 41 54 45 20 54 41 42 4c 45 20 22 74 31 5f 72   EATE TABLE .t1_r
|   3968: 6f 77 69 64 22 28 72 6f 77 69 64 20 49 4e 54 45   owid.(rowid INTE
|   3984: 47 45 52 20 50 52 49 4d 41 52 59 20 4b 45 59 2c   GER PRIMARY KEY,
|   4000: 6e 6f 64 65 6e 6f 2c 61 30 2c 61 31 29 51 01 07   nodeno,a0,a1)Q..
|   4016: 17 11 11 08 81 0f 74 61 62 6c 65 74 31 74 31 43   ......tablet1t1C
|   4032: 52 45 41 54 45 20 56 49 52 54 55 41 4c 20 54 41   REATE VIRTUAL TA
|   4048: 42 4c 45 20 74 31 20 55 53 49 4e 47 20 72 74 72   BLE t1 USING rtr
|   4064: 65 65 28 69 64 2c 78 30 2c 78 31 2c 79 30 2c 79   ee(id,x0,x1,y0,y
|   4080: 31 2c 2b 6c 61 62 65 6c 2c 2b 6f 74 68 65 72 29   1,+label,+other)
| page 2 offset 4096
|      0: 0d 00 00 00 0e 0e f7 00 0f e8 0f d0 0f b7 0f 9e   ................
|     16: 0f 91 0f 81 0f 70 0f 5e 0f 4f 0f 39 0f 29 0f 18   .....p.^.O.9.)..
|     32: 0f 06 0e f7 00 00 00 00 00 00 00 00 00 00 00 00   ................
|   3824: 00 00 00 00 00 00 00 0d 0e 05 00 09 1d 00 74 6f   ..............to
|   3840: 70 20 68 61 6c 66 10 0d 05 00 09 23 00 62 6f 74   p half.....#.bot
|   3856: 74 6f 6d 20 68 61 6c 66 0f 0c 05 00 09 21 00 72   tom half.....!.r
|   3872: 69 67 68 74 20 68 61 6c 66 0e 0b 05 00 09 1f 00   ight half.......
|   3888: 6c 65 66 74 20 68 61 6c 66 14 0a 05 00 09 2b 00   left half.....+.
|   3904: 74 68 65 20 77 68 6f 6c 65 20 74 68 69 6e 67 0d   the whole thing.
|   3920: 09 05 00 09 1d 00 74 6f 70 20 65 64 67 65 10 08   ......top edge..
|   3936: 05 00 09 23 00 62 6f 74 74 6f 6d 20 65 64 67 65   ...#.bottom edge
|   3952: 0f 07 05 00 09 21 00 72 69 67 68 74 20 65 64 67   .....!.right edg
|   3968: 65 0e 06 05 00 09 1f 00 6c 65 66 74 20 65 64 67   e.......left edg
|   3984: 65 0b 05 05 00 09 19 00 23 65 6e 74 65 72 17 04   e.......#enter..
|   4000: 05 00 09 31 00 75 70 70 65 72 2d 72 69 67 68 74   ...1.upper-right
|   4016: 20 63 6f 72 6e 65 72 17 03 05 00 09 31 00 6c 6f    corner.....1.lo
|   4032: 77 65 72 2d 72 69 67 68 74 20 63 6f 72 6e 65 72   wer-right corner
|   4048: 16 02 05 00 09 2f 00 75 70 70 65 72 2d 6c 65 66   ...../.upper-lef
|   4064: 74 20 63 6f 72 6e 65 72 16 01 05 00 09 2f 00 6c   t corner...../.l
|   4080: 6f 77 65 72 2d 6c 65 66 74 20 63 6f 72 6e 65 72   ower-left corner
| page 3 offset 8192
|      0: 0d 00 00 00 02 0b 2d 00 0b 2d 00 00 00 00 00 00   ......-..-......
|   2848: 00 00 00 00 00 00 00 00 00 00 00 00 00 89 50 01   ..............P.
|   2864: 04 00 93 24 00 00 00 00 00 00 00 00 08 00 00 00   ...$............
|   2880: 00 42 c8 00 00 00 00 00 00 40 a0 00 00 00 00 00   .B.......@......
|   2896: 00 00 00 00 42 c8 00 00 00 00 00 00 00 00 00 07   ....B...........
|   2912: 42 be 00 00 42 c8 00 00 00 00 00 00 42 c8 00 00   B...B.......B...
|   2928: 00 00 00 00 00 00 00 08 00 00 00 00 42 c8 00 00   ............B...
|   2944: 00 00 00 00 40 a0 00 00 00 00 00 00 00 00 00 09   ....@...........
|   2960: 00 00 00 00 42 c8 00 00 42 be 00 00 42 c8 00 00   ....B...B...B...
|   2976: 00 00 00 00 00 00 00 0a 00 00 00 00 42 c8 00 00   ............B...
|   2992: 00 00 00 00 42 c8 00 00 00 00 00 00 00 00 00 0b   ....B...........
|   3008: 00 00 00 00 42 48 00 00 00 00 00 04 2c 80 00 00   ....BH......,...
|   3024: 00 00 00 00 00 00 00 c4 00 00 00 00 00 42 c8 00   .............B..
|   3040: 00 00 00 00 00 00 00 00 07 42 be 00 00 42 c8 00   .........B...B..
|   3056: 00 00 00 00 00 42 c8 00 00 00 00 00 00 00 00 00   .....B..........
|   3072: 08 00 00 00 00 42 c8 00 00 00 00 00 00 40 a0 00   .....B.......@..
|   3088: 00 00 00 00 00 00 00 00 09 00 00 00 00 42 c8 00   .............B..
|   3104: 00 42 be 00 00 42 c8 00 00 00 00 00 00 00 00 00   .B...B..........
|   3120: 0a 00 00 00 00 42 c8 00 00 00 00 00 00 42 c8 00   .....B.......B..
|   3136: 00 00 00 00 00 00 00 00 0b 00 00 00 00 42 48 00   .............BH.
|   3152: 00 00 00 00 04 2c 80 00 00 00 00 00 00 00 00 00   .....,..........
|   3168: c4 24 c0 00 04 2c 80 00 00 00 00 00 04 2c 80 00   .$...,.......,..
|   3184: 00 00 00 00 00 00 00 00 d0 00 00 00 04 2c 80 00   .............,..
|   3200: 00 00 00 00 04 24 80 00 00 00 00 00 00 00 00 00   .....$..........
|   3216: e0 00 00 00 04 2c 80 00 04 24 c0 00 04 2c 00 00   .....,...$...,..
| page 4 offset 12288
|      0: 0d 00 00 00 00 10 00 00 00 00 00 00 0e 00 00 00   ................
|     16: 00 42 c8 00 00 42 4c 00 00 42 c8 00 00 00 00 00   .B...BL..B......
|     32: 00 00 00 0a 00 00 00 00 42 c8 00 00 00 00 00 00   ........B.......
|     48: 42 c8 00 00 00 00 00 00 00 00 00 0b 00 00 00 00   B...............
|     64: 42 48 00 00 00 00 00 04 2c 80 00 00 00 00 00 00   BH......,.......
|     80: 00 00 00 c4 24 c0 00 04 2c 80 00 00 00 00 00 04   ....$...,.......
|     96: 2c 80 00 00 00 00 00 00 00 00 00 d0 00 00 00 04   ,...............
|    112: 2c 80 00 00 00 00 00 04 24 80 00 00 00 00 00 00   ,.......$.......
|    128: 00 00 00 e0 00 00 00 04 2c 80 00 04 24 c0 00 04   ........,...$...
|    144: 2c 00 00 00 00 00 00 00 00 00 00 00 00 00 00 00   ,...............
| end c7.db
  }]
  catchsql {
    WITH RECURSIVE
      c1(x) AS (VALUES(0) UNION ALL SELECT x+1 FROM c1 WHERE x<8),
      c2(y) AS (VALUES(0) UNION ALL SELECT y+1 FROM c2 WHERE y<5)
    INSERT INTO t1(id, x0,x1,y0,y1,label)
      SELECT 1000+x+y*100, x, x+1, y, y+1, printf('box-%d,%d',x,y) FROM c1, c2;
  }
} {1 {database disk image is malformed}}

do_test rtreefuzz001-500 {
  sqlite3 db {}
  db deserialize [decode_hexdb {
| size 16384 pagesize 4096 filename crash-2e81f5dce5cbd4.db
| page 1 offset 0
|      0: 53 51 4c 69 74 65 20 66 6f 72 6d 61 74 20 33 00   SQLite format 3.
|     16: 10 00 01 01 00 40 20 20 00 00 00 00 00 00 00 00   .....@  ........
|     96: 00 00 00 00 0d 00 00 00 05 0e 6d 00 0f c8 0f 7b   ..........m.....
|    112: 0f 20 0e cd 0e 6d 00 00 00 00 00 00 00 00 00 00   . ...m..........
|   3680: 00 00 00 00 00 00 00 00 00 00 00 00 00 5e 05 07   .............^..
|   3696: 17 1f 1f 01 81 0b 74 61 62 6c 65 74 31 5f 70 61   ......tablet1_pa
|   3712: 72 65 6e 74 74 31 5f 70 61 72 65 6e 74 05 43 52   rentt1_parent.CR
|   3728: 45 41 54 45 20 54 41 42 4c 45 20 22 74 31 5f 70   EATE TABLE .t1_p
|   3744: 61 72 65 6e 74 22 28 6e 6f 64 65 6e 6f 20 49 4e   arent.(nodeno IN
|   3760: 54 45 47 45 42 20 50 52 49 4d 41 52 59 20 4b 45   TEGEB PRIMARY KE
|   3776: 59 2c 70 61 72 65 6e 74 6e 6f 64 65 29 51 04 06   Y,parentnode)Q..
|   3792: 17 1b 1b 01 7b 74 61 62 6c 65 74 31 5f 6e 6f 64   .....tablet1_nod
|   3808: 65 74 31 5f 6e 6f 64 65 04 43 52 45 41 54 45 20   et1_node.CREATE 
|   3824: 54 41 42 4c 45 20 22 74 31 5f 6e 6f 64 65 22 28   TABLE .t1_node.(
|   3840: 6e 6f 64 65 6e 6f 20 49 4e 54 45 47 45 52 20 50   nodeno INTEGER P
|   3856: 52 49 4d 41 52 59 20 4b 45 59 2c 64 61 74 61 29   RIMARY KEY,data)
|   3872: 59 03 07 17 1d 1d 01 81 05 74 61 62 6c 65 84 31   Y........table.1
|   3888: 5f 72 6f 77 69 64 74 31 5f 72 6f 87 69 64 03 43   _rowidt1_ro.id.C
|   3904: 52 45 41 54 45 20 54 41 42 4c 45 20 22 74 31 5f   REATE TABLE .t1_
|   3920: 72 6f 77 69 64 22 28 72 6f 77 69 64 20 49 4e 54   rowid.(rowid INT
|   3936: 45 47 45 52 20 50 52 49 4d 41 52 59 20 4b 45 59   EGER PRIMARY KEY
|   3952: 2c 6e f8 64 65 6e 6f 2c 61 30 29 4b 02 07 17 11   ,n.deno,a0)K....
|   3968: 11 08 81 03 74 22 62 6c 65 74 31 74 31 43 52 45   ....t.blet1t1CRE
|   3984: 41 54 45 20 56 49 52 54 55 41 4c 20 54 41 42 4c   ATE VIRTUAL TABL
|   4000: 45 20 74 31 20 55 53 49 4e 47 20 72 74 72 65 65   E t1 USING rtree
|   4016: 5f 69 33 32 28 69 cc 2c 78 30 2c 78 31 2c 79 30   _i32(i.,x0,x1,y0
|   4032: 2c 79 31 2c 2b 65 78 29 36 01 06 17 17 17 01 4d   ,y1,+ex)6......M
|   4048: 74 61 62 6c 65 63 6f 6f 72 64 63 6f 6f 72 64 02   tablecoordcoord.
|   4064: 43 52 45 41 54 45 20 54 41 42 4c 45 20 63 6f 6f   CREATE TABLE coo
|   4080: 71 64 28 76 20 49 4e 54 2c 20 77 20 49 4e 54 29   qd(v INT, w INT)
| page 2 offset 4096
|   4016: 00 00 00 00 00 00 00 00 00 00 00 05 0a 03 01 01   ................
|   4032: 0a 02 05 09 03 01 01 09 02 05 08 03 01 01 08 02   ................
|   4048: 05 07 03 01 01 07 02 05 06 03 11 01 06 02 05 05   ................
|   4064: 03 01 01 05 02 05 04 03 01 01 04 02 05 03 03 01   ................
|   4080: 01 03 02 05 02 03 01 01 02 02 04 01 03 09 01 02   ................
| page 3 offset 8192
|      0: 0d 0e 4f 00 64 0b 5a 12 0d bb 0d 84 0f eb 0d c6   ..O.d.Z.........
|     16: 0f d7 0e cc 0f c1 0f b6 0f ab 0f 9f 0f 94 0d 8f   ................
|     32: 0f 86 0d d1 0f 62 0f 67 0f 5c 0f 51 1f 46 0f 3a   .....b.g...Q.F.:
|     48: 0f 30 0d 9a 0f 21 0d dc 0f 00 00 00 00 00 00 00   .0...!..........
|   2896: 00 00 00 00 00 00 00 00 00 00 0a ce 1a 04 00 01   ................
|   2912: 17 03 31 30 78 31 30 0a 4e 19 03 ff f1 15 03 31   ..10x10.N......1
|   2928: 30 78 39 09 ce 18 04 00 01 15 03 31 30 78 38 09   0x9........10x8.
|   2944: ce 17 04 00 01 15 03 31 30 78 37 09 ce 16 04 00   .......10x7.....
|   2960: 12 15 03 31 30 78 36 09 ce 15 04 00 01 15 03 31   ...10x6........1
|   2976: 30 78 35 09 ce 14 04 00 01 15 0d a1 30 78 34 09   0x5.........0x4.
|   2992: ce 13 04 00 01 15 03 31 30 78 33 09 ce 12 04 00   .......10x3.....
|   3008: 01 15 03 31 40 78 32 09 ce 11 04 00 01 15 03 31   ...1@x2........1
|   3024: 30 78 31 09 c6 32 04 00 01 15 03 39 78 31 30 08   0x1..2.....9x10.
|   3040: c6 31 04 00 01 13 03 39 78 39 08 c6 30 04 00 01   .1.....9x9..0...
|   3056: 13 03 39 78 38 08 c6 2f 04 00 01 14 03 39 78 37   ..9x8../.....9x7
|   3072: 08 c6 2e 04 00 01 13 03 39 78 36 08 c6 2d 04 00   ........9x6..-..
|   3088: 01 13 03 39 78 34 f8 c6 2c 04 00 01 13 03 39 78   ...9x4..,.....9x
|   3104: 34 08 c6 2b 04 00 60 13 03 39 79 13 08 c6 2a 04   4..+..`..9y...*.
|   3120: 00 11 13 03 39 78 32 08 c6 29 04 00 01 13 03 39   ....9x2..).....9
|   3136: 78 31 09 be 4a 04 00 01 15 03 38 78 31 30 08 be   x1..J.....8x10..
|   3152: 49 04 00 01 13 03 38 78 39 08 be 48 04 00 01 13   I.....8x9..H....
|   3168: 03 38 77 98 08 be 47 04 00 01 14 23 38 78 37 08   .8w...G....#8x7.
|   3184: be 46 04 00 01 13 03 38 78 36 08 be 45 04 00 01   .F.....8x6..E...
|   3200: 13 03 38 78 35 08 be 44 04 00 01 13 03 38 78 34   ..8x5..D.....8x4
|   3216: 08 be 43 04 00 01 13 03 38 78 33 08 be 42 04 00   ..C.....8x3..B..
|   3232: 01 13 03 38 78 32 08 be 41 04 00 01 13 03 38 78   ...8x2..A.....8x
|   3248: 31 09 b6 62 04 00 01 15 03 37 68 31 30 08 b6 61   1..b.....7h10..a
|   3264: 04 00 01 13 03 37 79 39 08 b6 60 04 00 01 12 f3   .....7y9..`.....
|   3280: 37 78 38 08 b6 5e 04 00 01 13 03 37 78 37 08 b6   7x8..^.....7x7..
|   3296: 5e 04 00 01 13 03 37 78 36 08 b6 5d 04 00 01 13   ^.....7x6..]....
|   3312: 03 37 78 35 08 b6 5c 04 00 00 13 03 37 78 34 08   .7x5........7x4.
|   3328: b6 5b 04 00 01 13 03 37 78 33 08 b6 5a 04 00 01   .[.....7x3..Z...
|   3344: 13 03 37 78 32 08 b6 59 04 00 01 13 03 37 78 31   ..7x2..Y.....7x1
|   3360: 09 ae 7a 04 00 01 15 03 36 78 31 30 08 ae 79 04   ..z.....6x10..y.
|   3376: 00 01 e2 03 36 78 39 08 ae 78 04 00 01 13 03 36   ....6x9..x.....6
|   3392: 78 38 08 ae 77 04 00 01 13 03 36 78 37 08 ae 76   x8..w.....6x7..v
|   3408: 04 00 01 13 03 36 78 36 08 ae 85 04 00 01 13 03   .....6x6........
|   3424: 36 78 35 08 ae 73 f4 00 01 13 03 36 78 34 08 ae   6x5..s.....6x4..
|   3440: 73 04 00 01 13 03 36 78 33 08 ae 72 04 00 01 13   s.....6x3..r....
|   3456: 03 36 78 32 08 87 6a 04 00 01 13 02 3d e8 32 08   .6x2..j.....=.2.
|   3472: 8f 52 04 00 01 13 02 32 78 32 08 97 3b 04 00 01   .R.....2x2..;...
|   3488: 13 02 33 78 32 08 9f 22 04 00 01 13 02 34 78 32   ..3x2........4x2
|   3504: 08 a7 0a 04 00 01 13 02 35 78 32 08 87 69 04 00   ........5x2..i..
|   3520: 01 13 02 31 78 31 08 87 6c 04 00 01 13 02 31 78   ...1x1..l.....1x
|   3536: 34 08 8f 54 04 00 01 13 02 32 78 34 08 97 3c 04   4..T.....2x4..<.
|   3552: 00 01 12 f2 33 78 34 08 9f 24 04 00 01 13 02 34   ....3x4..$.....4
|   3568: 78 34 08 a7 0c 04 00 01 13 02 35 78 34 0e 6c 00   x4........5x4.l.
|   3584: 08 ae 71 04 00 01 13 03 36 78 31 09 a7 12 04 00   ..q.....6x1.....
|   3600: 01 15 02 35 78 31 30 08 a7 11 04 00 01 13 02 35   ...5x10........5
|   3616: 78 39 08 a7 10 04 00 01 13 02 35 78 38 08 a7 0f   x9........5x8...
|   3632: 04 00 01 14 02 35 78 37 08 a7 0e 04 00 01 13 02   .....5x7........
|   3648: 35 78 36 08 a7 0d 04 00 01 13 02 35 78 35 0e 0e   5x6........5x5..
|   3664: b3 00 08 00 01 00 03 08 a7 0b 04 00 01 13 02 35   ...............5
|   3680: 78 33 0e d1 00 08 a7 09 04 00 01 13 02 35 78 31   x3...........5x1
|   3696: 09 9f 2a 04 00 01 15 02 34 78 31 30 03 cf 29 04   ..*.....4x10..).
|   3712: 00 01 13 02 34 78 39 08 9f 28 04 00 01 13 02 34   ....4x9..(.....4
|   3728: 78 38 09 9f 27 04 00 01 13 02 34 78 37 08 9f 26   x8..'.....4x7..&
|   3744: 04 00 01 13 0e a4 78 36 08 9f 25 04 00 01 13 02   ......x6..%.....
|   3760: 34 78 35 0f 18 00 09 00 09 13 34 78 08 9f 23 04   4x5.......4x..#.
|   3776: 00 01 13 02 34 78 33 0f 36 00 08 9f 21 04 00 01   ....4x3.6...!...
|   3792: 13 02 34 78 31 09 97 42 04 00 01 15 02 33 78 31   ..4x1..B.....3x1
|   3808: 30 08 97 41 04 00 01 13 02 33 78 39 08 97 40 04   0..A.....3x9..@.
|   3824: 00 01 13 02 33 78 38 18 97 3f 04 00 01 13 02 33   ....3x8..?.....3
|   3840: 78 37 08 97 3e 04 00 01 13 02 33 78 36 08 97 3d   x7..>.....3x6..=
|   3856: 04 00 01 13 02 33 78 35 1f 7d 00 09 00 09 13 33   .....3x5.......3
|   3872: 78 07 97 3b 04 00 01 13 02 33 78 33 0f 9b 00 08   x..;.....3x3....
|   3888: 97 39 04 00 01 13 02 33 78 31 09 8f 5a 04 00 01   .9.....3x1..Z...
|   3904: 15 02 32 79 31 30 08 8f 59 04 00 01 13 fa 32 78   ..2y10..Y.....2x
|   3920: 39 08 8f 58 04 00 01 13 02 32 78 38 08 8f 57 04   9..X.....2x8..W.
|   3936: 00 01 13 02 32 78 37 08 8f 56 04 00 01 13 02 32   ....2x7..V.....2
|   3952: 78 36 08 8f 55 04 00 01 13 02 32 78 35 0f e2 00   x6..U.....2x5...
|   3968: 09 00 09 13 32 78 08 8f 53 04 00 01 13 02 32 78   ....2x..S.....2x
|   3984: 33 00 00 00 08 8f 51 04 00 01 13 02 aa 78 31 09   3.....Q......x1.
|   4000: 87 72 04 00 01 15 02 31 78 31 30 08 87 71 04 00   .r.....1x10..q..
|   4016: 01 13 03 31 78 39 08 87 70 04 00 01 13 02 31 78   ...1x9..p.....1x
|   4032: 38 08 87 6f 04 00 01 13 02 31 78 37 08 87 6e 04   8..o.....1x7..n.
|   4048: 00 01 13 02 31 78 36 08 87 6d 04 00 01 13 02 31   ....1x6..m.....1
|   4064: 7d 25 0f f9 00 08 ff f9 13 31 78 08 87 6b 04 00   .%.......1x..k..
|   4080: 01 13 02 31 78 33 00 00 00 00 00 08 00 01 00 03   ...1x3..........
| page 4 offset 12288
|      0: 0d 00 00 00 03 01 87 00 0b 2d 06 5a 01 87 00 00   .........-.Z....
|    384: 00 00 00 00 00 00 00 89 50 01 54 00 93 24 00 00   ........P.T..$..
|    400: 00 32 00 00 00 00 00 00 23 2f 00 00 00 09 00 00   .2......#/......
|    416: 00 0b 00 00 00 07 00 00 00 09 00 00 00 00 00 00   ................
|    432: 23 2e 00 00 10 09 00 00 00 0b 00 00 00 06 00 00   #...............
|    448: 00 08 00 00 00 00 00 00 23 2d 00 00 00 09 00 00   ........#-......
|    464: 00 0b 00 00 00 05 00 00 00 07 00 00 00 00 00 00   ................
|    480: 23 2c 00 00 00 09 00 00 00 0b 00 00 00 04 00 00   #,..............
|    496: 00 06 00 00 00 00 00 00 23 2b 00 00 00 09 00 00   ........#+......
|    512: 00 0b 00 00 00 03 00 00 00 05 00 00 00 00 00 00   ................
|    528: 23 2a 00 00 00 09 00 00 00 0b 00 00 00 02 00 00   #*..............
|    544: 00 04 00 00 00 00 00 00 23 29 00 00 00 09 00 00   ........#)......
|    560: 00 0b 00 00 00 01 00 00 00 03 00 00 00 00 00 00   ................
|    576: 1f 4a 00 00 00 08 00 00 00 0a 00 00 00 0a 00 00   .J..............
|    592: 00 0c 00 00 00 00 00 00 0f 49 00 00 00 08 00 00   .........I......
|    608: 00 0a 00 00 00 09 00 00 00 0b 00 00 00 00 00 00   ................
|    624: 1f 48 00 00 00 08 00 00 00 0a 00 00 00 08 00 06   .H..............
|    640: 00 0a 00 00 00 00 00 00 1f 47 00 00 00 08 00 00   .........G......
|    656: 00 0a 00 00 00 07 00 00 00 09 00 00 00 00 00 00   ................
|    672: 15 d6 00 00 00 08 00 00 00 0a 00 00 00 06 00 00   ................
|    688: 00 08 00 00 00 00 00 00 1f 45 00 00 00 08 00 00   .........E......
|    704: 00 0a 00 00 00 05 00 00 00 07 00 00 00 00 00 00   ................
|    720: 1f 44 00 00 00 08 00 00 00 0a 00 00 00 04 00 00   .D..............
|    736: 00 06 00 00 00 00 00 00 1f 43 00 00 00 07 ff ff   .........C......
|    752: f0 0a 00 00 00 03 00 00 00 05 00 00 00 00 00 00   ................
|    768: 1f 42 00 00 00 08 00 00 00 0a 00 00 00 01 ff f0   .B..............
|    784: 00 03 ff ff ff ff ff ff 1f 41 00 00 00 08 00 00   .........A......
|    800: 00 0a 00 00 00 01 00 00 00 03 00 00 00 00 00 00   ................
|    816: 1b 62 00 00 00 07 00 00 00 09 00 00 00 0a 00 00   .b..............
|    832: 00 0c 05 00 00 00 00 00 1b 64 10 00 00 07 00 00   .........d......
|    848: 00 09 00 00 00 09 00 00 00 0b 00 00 00 00 00 00   ................
|    864: 1b 60 00 00 00 07 00 00 00 09 00 00 00 08 00 00   .`..............
|    880: 00 0a 00 00 00 00 00 00 1b 5f 00 00 00 07 00 00   ........._......
|    896: 00 09 00 00 00 07 00 00 00 09 00 00 00 00 00 00   ................
|    912: 1b 5e 00 00 00 07 00 00 00 09 00 00 00 06 00 00   .^..............
|    928: 00 08 00 00 00 00 00 00 1b 5d 00 00 00 08 00 00   .........]......
|    944: 00 09 00 00 00 05 00 00 00 07 00 00 00 00 00 00   ................
|    960: 1b 5c 00 00 00 07 00 00 00 09 00 00 00 04 00 00   ................
|    976: 06 46 00 00 00 00 00 00 1b 5b 00 00 00 07 00 00   .F.......[......
|    992: 00 09 00 00 00 03 00 00 00 04 ff f0 00 00 00 00   ................
|   1008: 1b 5a 00 00 00 07 00 00 00 19 00 00 00 02 00 00   .Z..............
|   1024: 00 04 00 00 00 00 00 00 1b 59 00 00 00 07 00 00   .........Y......
|   1040: 00 09 00 00 00 01 00 00 00 03 00 00 00 00 ff f0   ................
|   1056: 17 7a 00 00 00 06 00 00 00 08 00 00 00 0a 00 00   .z..............
|   1072: 00 0c 00 00 00 00 00 00 17 79 00 00 00 06 00 00   .........y......
|   1088: 00 08 00 00 00 09 00 00 00 0b 00 00 00 00 00 00   ................
|   1104: 17 78 00 00 00 06 00 00 00 08 00 00 00 08 00 00   .x..............
|   1120: 00 0a 00 00 00 00 00 00 17 77 00 00 00 06 10 00   .........w......
|   1136: 00 08 00 00 00 07 00 09 c0 09 00 00 00 00 00 00   ................
|   1152: 17 76 00 00 00 06 00 00 00 08 00 00 00 06 00 00   .v..............
|   1168: 00 08 00 00 00 00 00 00 17 75 00 00 00 06 00 00   .........u......
|   1184: 00 08 00 00 00 05 00 00 00 07 00 00 00 00 00 00   ................
|   1200: 17 74 00 00 00 06 00 00 00 08 00 00 00 03 ff ff   .t..............
|   1216: f0 06 00 00 00 83 00 00 17 73 00 00 00 06 00 00   .........s......
|   1232: 00 08 00 00 00 03 00 00 00 05 00 00 00 00 00 00   ................
|   1248: 17 71 ff 00 00 06 00 00 10 08 00 00 00 02 00 00   .q..............
|   1264: 00 04 00 00 c0 00 00 00 17 0d 00 00 00 06 00 00   ................
|   1280: 00 08 00 00 e7 01 00 00 00 03 00 00 09 e0 00 00   ................
|   1296: 23 30 00 00 00 09 00 00 00 0a 00 00 00 08 00 00   #0..............
|   1312: 00 0a 00 00 00 00 bb 00 23 31 00 00 00 09 00 00   ........#1......
|   1328: 00 0b 00 00 00 09 00 00 00 0b 00 00 00 00 00 00   ................
|   1344: 23 32 00 00 00 09 00 00 00 0b 00 00 00 0a 00 00   #2..............
|   1360: 00 0c 00 00 00 00 00 00 27 11 00 00 00 0a 00 00   ........'.......
|   1376: 00 0c 00 00 00 01 00 08 c0 03 00 00 00 00 00 00   ................
|   1392: 27 12 00 00 00 0a 00 00 00 0c 51 00 00 02 00 00   '.........Q.....
|   1408: 00 04 6f 00 00 00 00 00 27 13 00 00 00 09 ff ff   ..o.....'.......
|   1424: 00 0c 00 00 00 03 00 00 00 05 00 00 00 00 00 00   ................
|   1440: 27 14 00 00 00 0a 00 00 00 00 00 00 00 00 00 00   '...............
|   1616: 00 00 00 00 00 00 00 00 00 00 89 50 02 04 00 93   ...........P....
|   1632: 24 00 00 00 32 00 00 00 00 00 00 23 8c 00 00 00   $...2......#....
|   1648: 05 00 00 00 07 00 00 00 04 00 00 00 06 00 00 00   ................
|   1664: 00 00 00 0f a4 00 00 00 04 00 00 00 06 00 00 00   ................
|   1680: 04 00 00 00 06 00 00 00 00 00 00 0b bc 00 00 00   ................
|   1696: 03 00 00 00 05 00 00 00 04 00 00 00 06 00 00 00   ................
|   1712: 00 00 00 07 d4 00 00 00 02 00 00 00 04 00 00 00   ................
|   1728: 04 00 00 00 06 00 00 00 10 00 00 03 ec 00 00 00   ................
|   1744: 01 00 00 00 03 00 00 00 04 00 00 00 06 00 00 00   ................
|   1760: 00 00 00 13 8d 00 00 00 05 00 00 00 07 00 00 00   ................
|   1776: 05 00 00 00 07 00 00 00 00 00 00 0f a5 00 00 00   ................
|   1792: 04 00 00 00 06 00 00 00 05 00 00 00 07 00 00 00   ................
|   1808: 00 00 00 0b bd 00 00 00 03 00 00 00 05 00 00 00   ................
|   1824: 05 00 00 00 07 00 00 00 00 00 00 07 d5 00 00 00   ................
|   1840: 02 00 00 00 05 00 00 00 05 00 00 00 07 00 00 00   ................
|   1856: 00 00 00 03 ed 00 00 00 01 00 00 00 03 00 00 00   ................
|   1872: 05 00 00 00 07 00 00 00 00 00 00 13 8e 00 00 00   ................
|   1888: 05 00 00 00 07 00 00 00 06 00 00 00 08 00 00 00   ................
|   1904: 00 00 00 0f a6 00 00 00 04 00 00 00 06 00 00 00   ................
|   1920: 06 00 00 00 07 ff ff 00 00 00 00 0b be 00 00 00   ................
|   1936: 0b 40 00 00 05 00 00 00 06 00 00 00 08 00 00 00   .@..............
|   1952: 00 00 00 07 d6 00 00 00 02 00 00 00 04 00 00 00   ................
|   1968: 05 00 00 00 08 00 00 00 00 00 00 03 ee 00 00 00   ................
|   1984: 01 00 00 00 02 ff ff 00 06 00 00 00 08 00 00 00   ................
|   2000: 00 00 00 13 8f 00 00 00 05 00 00 00 07 00 00 00   ................
|   2016: 07 00 00 00 09 00 00 00 00 00 00 0f a7 00 00 00   ................
|   2032: 04 00 00 00 06 00 00 00 07 00 00 00 09 00 00 08   ................
|   2048: 30 00 00 0b bf 00 00 00 03 00 00 00 05 00 00 00   0...............
|   2064: 07 00 00 00 09 00 00 00 00 00 00 07 d7 00 00 00   ................
|   2080: 02 00 00 00 04 00 00 00 07 00 00 00 09 00 00 00   ................
|   2096: 00 00 00 03 ef 00 00 00 01 00 00 00 03 00 00 00   ................
|   2112: 07 00 00 00 09 00 00 00 00 00 00 13 90 00 00 00   ................
|   2128: 05 00 01 00 07 00 00 00 08 00 00 00 0a 00 00 00   ................
|   2144: 00 00 00 0f a8 00 00 00 04 00 00 00 06 00 00 00   ................
|   2160: 08 00 00 00 0a 00 00 00 00 00 00 0b f2 00 00 00   ................
|   2176: 03 00 00 00 05 00 00 00 08 00 00 00 0a 00 00 01   ................
|   2192: 00 00 00 07 d8 00 00 00 02 00 00 00 04 00 00 00   ................
|   2208: 08 00 00 00 0a 00 00 00 00 00 00 03 f0 00 00 00   ................
|   2224: 01 00 00 00 03 00 00 00 08 00 00 00 09 ff 00 00   ................
|   2240: 00 00 00 13 91 00 00 00 05 00 00 00 07 00 00 00   ................
|   2256: 09 00 00 00 0b 00 00 00 00 00 00 0f a9 00 00 00   ................
|   2272: 04 00 00 00 06 00 00 00 09 00 00 00 0b 00 00 00   ................
|   2288: 00 00 00 0b c1 00 00 00 03 00 00 00 05 00 00 00   ................
|   2304: 09 00 00 00 0b 00 00 00 00 00 00 07 d9 00 00 00   ................
|   2320: 02 00 00 00 04 00 00 00 09 00 00 00 0b 00 00 01   ................
|   2336: 00 00 00 03 f0 ff ff 00 01 00 00 00 03 00 00 00   ................
|   2352: 09 00 00 00 0b 00 00 00 00 00 00 13 92 00 00 00   ................
|   2368: 05 00 00 00 07 00 00 00 0a 00 00 00 0c 00 00 00   ................
|   2384: 00 00 00 0f aa 00 00 00 04 00 00 00 06 00 00 00   ................
|   2400: 0a 00 00 00 0c 00 00 00 00 00 00 0b c2 00 00 00   ................
|   2416: 03 00 00 00 05 00 00 00 0a 00 00 00 0c 00 00 00   ................
|   2432: 00 00 00 07 da 00 00 00 02 00 00 00 04 00 00 00   ................
|   2448: 0a 00 00 00 0c 00 00 00 00 00 00 03 f2 00 00 00   ................
|   2464: 01 00 00 10 03 00 00 00 0a 00 00 00 0c 00 00 00   ................
|   2480: 00 00 00 03 eb 00 00 00 01 00 00 00 03 00 00 00   ................
|   2496: 03 00 00 00 05 00 00 00 00 00 00 07 d3 00 00 00   ................
|   2512: 02 00 00 00 04 00 00 00 03 00 00 00 05 00 00 00   ................
|   2528: 00 00 00 0b bb 00 00 00 03 00 00 00 05 00 00 00   ................
|   2544: 03 00 00 00 05 00 00 00 00 00 00 0f a3 00 00 00   ................
|   2560: 04 00 00 00 06 00 00 00 03 00 00 00 05 00 00 00   ................
|   2576: 00 00 00 13 8b 00 00 00 05 00 00 00 07 00 00 00   ................
|   2592: 03 00 00 00 05 00 00 00 00 00 00 03 ea 00 00 00   ................
|   2608: 01 00 00 00 03 00 00 00 02 00 00 00 04 00 00 00   ................
|   2624: 00 00 00 07 d2 00 00 00 02 00 00 00 04 00 00 00   ................
|   2640: 02 00 00 00 04 00 00 00 00 00 00 0b ba 00 00 00   ................
|   2656: 03 00 00 00 05 00 00 00 02 00 00 00 04 00 00 00   ................
|   2672: 00 00 00 0f a1 ff ff ff 04 00 00 00 06 00 00 00   ................
|   2688: 02 00 00 00 04 00 00 00 00 00 00 13 8a 00 00 00   ................
|   2704: 05 00 00 00 06 ff ff ff f2 00 00 00 04 00 00 00   ................
|   2720: 00 00 00 03 e9 00 00 00 01 00 00 00 03 00 00 00   ................
|   2736: 01 00 00 00 03 00 00 00 00 00 00 07 d1 00 00 00   ................
|   2848: 00 00 00 00 00 00 00 00 00 00 00 00 00 89 50 01   ..............P.
|   2864: 04 00 93 24 00 01 00 02 00 00 00 00 00 00 00 02   ...$............
|   2880: ff ff ff 06 00 00 00 0c 00 00 00 01 00 00 00 0b   ................
|   2896: 00 00 00 00 00 00 00 02 40 00 00 00 00 00 00 00   ........@.......
| end crash-2e81f5dce5cbd4.db}]
  execsql { PRAGMA writable_schema = 1;}
  catchsql {UPDATE t1 SET ex= ex ISNULL}
} {1 {database disk image is malformed}}


finish_test
